:020000040800F2
:100000008008002019540008495400084D54000885
:1000100051540008555400085954000800000000CD
:100020000000000000000000000000005D54000817
:100030006154000800000000655400088951000860
:10004000695400086D540008715400087554000884
:10005000795400087D5400089F510008955100080C
:100060008154000885540008895400088D54000804
:100070009154000895540008995400089D540008B4
:10008000A1540008A5540008A9540008AD54000864
:10009000B1540008B5540008B9540008BD54000814
:1000A000C1540008C5540008C9540008CD540008C4
:1000B000D15400080000000000000000D5540008E2
:1000C000D9540008DD540008E15400080000000085
:1000D000E5540008E9540008A9510008ED5400084F
:1000E000C1510008F1540008F55400080000000058
:1000F0000000000000000000000000000000000000
:10010000000000000000000000000000F95400089A
:100110000000000000000000FD5400080000000086
:1001200000000000000000000000000000000000CF
:1001300000000000000000000000000000000000BF
:1001400001550008055500080000000000000000EF
:10015000000000000000000000000000000000009F
:10016000095500080D5500081155000815550008DF
:100170001955000800000000000000000000000009
:10018000000000001D550008002117E000220B00B0
:10019000DBB21B01C25400220B00DBB21B01034483
:1001A0005A6000220B00DBB21B0103449A6000225C
:1001B0000B00DBB21B010344DA60491C0A00D2B217
:1001C000022AE3DB704770B4039D049C0600F6B27C
:1001D00036018A550200D2B212010A44536002006D
:1001E000D2B212010A449560C0B200010844C46052
:1001F00070BC7047FEB504000D0016001F00DFF84C
:10020000581B0878002804D1012008702800FFF747
:10021000BBFF09990898019100903B003200D2B2CF
:1002200029002000C0B2FFF7CEFFF7BDF0B40024D4
:1002300000230AE000252600F6B28D55641C521CEE
:100240001500EDB2022DF5DB5B1C1A00D2B2042AB8
:1002500001DA0022F4E7002301E0FFE75B1C1A004B
:10026000D2B2022A80F2A081DFF8C0491A00D2B2CD
:100270001201855C0E22554304EB0502127B1C0023
:10028000E4B20A551A00D2B21201825C002A28D0C8
:10029000022A5CD026D3042A00F0968069D3062A6D
:1002A00000F0D180C0F0A480082A00F00F81C0F0D7
:1002B000E2800A2A00F07181C0F047810C2A00F028
:1002C0006E81C0F06B810E2A00F06B81C0F06881F6
:1002D000102A00F06881C0F06581122ABDD0BDD31C
:1002E000BCE7BBE71424DFF8E8591A00D2B28E5CF1
:1002F0001A00D2B21201024452686243AA5C164349
:100300001A00D2B28E541A00D2B2120102445268BC
:1003100004FB02F405EB0402927B01240FE02500AC
:10032000EDB26D0055FA83F51E00F6B236010644B3
:10033000B668171BFFB2FF00FE404E55641C250037
:10034000EDB21600F6B2761CB542E8DB86E71A007D
:10035000D2B28C5CDFF878591A00D2B21201024492
:10036000566814225643AA5D14431A00D2B28C5424
:1003700074E71A00D2B28C5CDFF82C5B1A00D2B2A0
:100380001201024456680922564305EB0602127A0E
:1003900014431A00D2B28C54012210E01400E4B2CB
:1003A000640054FA83F41D00EDB22D010544AD68DC
:1003B000D2F10306F6B2F600F5400D55521C1400BA
:1003C000E4B2042CEADB49E71A00D2B28C5CDFF815
:1003D000D85A1A00D2B21201024456680922564372
:1003E00005EB0602127A14431A00D2B28C5435E798
:1003F0001A00D2B28C5CDFF8B05A1A00D2B21201E5
:10040000024456680922564305EB0602127A144349
:100410001A00D2B28C54012210E01400E4B264003D
:1004200054FA83F41D00EDB22D010544AD68D2F1FC
:100430000306F6B2F600F5400D55521C1400E4B266
:10044000042CEADB0AE7012210E01400E4B26400A5
:1004500054FA83F41D00EDB22D0105446D68D2F10C
:100460000306F6B2F600F5400D55521C1400E4B236
:10047000042CEADBF2E61A00D2B28C5CDFF8285AD0
:100480001A00D2B21201024456680922564305EB03
:100490000602127A14431A00D2B28C54012210E0E0
:1004A0001400E4B2640054FA83F41D00EDB22D018F
:1004B0000544AD68D2F10306F6B2F600F5400D55DD
:1004C000521C1400E4B2042CEADBC7E61A00D2B2D4
:1004D0008C5CDFF844591A00D2B21201024456680B
:1004E0000522564305EB0602127954EAC2041A00AB
:1004F000D2B28C541A00D2B28C5CDFF8AC591A001C
:10050000D2B21201024496680922564305EB060254
:10051000127A14431A00D2B28C54012210E0140053
:10052000E4B2640054FA83F41D00EDB22D010544D9
:10053000ED68D2F10306F6B2F600F5400D55521CF7
:100540001400E4B2042CEADB88E61A00D2B28C5C18
:10055000DFF8C4581A00D2B21201024456680522CC
:10056000564305EB0602127954EAC2041A00D2B2CD
:100570008C541A00D2B28C5CDFF82C591A00D2B21B
:100580001201024496680922564305EB0602127ACC
:1005900014431A00D2B28C5460E65FE65EE65DE674
:1005A0005CE65BE65AE659E6F0BC7047DFED5A0AB6
:1005B000B4EE600AF1EE10FA08D5DFED620A80EEC3
:1005C000200ABCEEC00A10EE100A00E000207047BE
:1005D000DFED5E0AB4EE600AF1EE10FA09D5DFED48
:1005E0005A0A80EE200ABDEEC00A10EE100A80B250
:1005F00000E0002070470000DFED540AB4EE600A0E
:10060000F1EE10FA09D5DFED500A80EE200ABDEEBA
:10061000C00A10EE100A80B200E00020704700000F
:10062000DFED620AB4EE600AF1EE10FA09D5DFEDF3
:100630005E0A80EE200ABDEEC00A10EE100A80B2FB
:1006400000E0002070470000DFED700AB4EE600AA1
:10065000F1EE10FA09D5DFED6C0A80EE200ABDEE4E
:10066000C00A10EE100A80B200E0002070470000BF
:10067000DFED740AB4EE600AF1EE10FA0DD5DFED8D
:10068000960A80EE200AFEEE000A30EE200ABDEE49
:10069000C00A10EE100A80B200E00020704700008F
:1006A000DFED8E0AB4EE600AF1EE10FA09D5DFED47
:1006B0007C0A80EE200ABDEEC00A10EE100A80B25D
:1006C00000E0002070470000DFED920AB4EE600AFF
:1006D000F1EE10FA09D5DFEDAB0A80EE200ABDEE8F
:1006E000C00A10EE100AC0B200E0002070470000FF
:1006F000DFED880AB4EE600AF1EE10FA09D5DFEDFD
:10070000A10A80EE200ABDEEC00A10EE100AC0B2A7
:1007100000E00020704700001C247446DFED7D0AD5
:10072000B4EE600AF1EE10FA09D5DFED960A80EE1C
:10073000200ABDEEC00A10EE100AC0B200E0002090
:10074000704700002A24743CFED4684172C6684792
:10075000DFED9C0AB4EE600AF1EE10FA22D5DFED6F
:10076000980A80EE200AFDEEC00A10EE900AC0B290
:1007700000EE900AF8EE600A70EE600AB6EE001A1B
:10078000F4EE410AF1EE10FA06D5BDEEC00A10EE05
:10079000100A401EC0B206E0BDEEC00A10EE100AFC
:1007A000C0B200E0002070470B24744103E7734699
:1007B000DFEDAD0AB4EE600AF1EE10FA22D5DFEDFE
:1007C0009C0A80EE200AFDEEC00A10EE900AC0B22C
:1007D00000EE900AF8EE600A70EE600AB6EE001ABB
:1007E000F4EE410AF1EE10FA06D5BDEEC00A10EEA5
:1007F000100A401EC0B206E0BDEEC00A10EE100A9C
:10080000C0B200E0002070470124743EC01474445C
:100810003EB50B00DFF8F449002101910092DBB2F4
:1008200001222100C0B2FFF7E5FCDFF8E4592900FE
:100830002000FFF7FBFCDFF8DC19280000F0FEFACF
:1008400037BD000081E17346FEB504000D00DFF8FE
:10085000BC6900200190002000902B00DBB2022236
:1008600031002000C0B2FFF7C5FCDFF8A4793900E1
:100870003000FFF7DBFCDFF89C693100380000F046
:10088000DDFADFF89419EDB21420454301EB0500C1
:10089000827BD2B231002000C0B200F007FBFEBD67
:1008A000F423743D3EB50B00DFF86049002101914F
:1008B0000092DBB203222100C0B2FFF79BFCDFF8FD
:1008C000505929002000FFF7B1FCDFF84819280033
:1008D00000F0B4FA37BD00000000744124207444D5
:1008E0003EB50B00DFF82449002101910021009161
:1008F000DBB204222100C0B2FFF77CFCDFF8105904
:1009000029002000FFF792FCDFF80819280000F00A
:1009100095FA37BDDA11833B3EB50B00DFF8EC48A2
:10092000002101910092DBB205222100C0B2FFF745
:1009300061FCDFF8DC5829002000FFF777FCDFF8C6
:10094000D418280000F07AFA37BD3EB50B00B3F595
:10095000800F15D2DFF8B4480021019100210091E9
:1009600006222100C0B2FFF745FCDFF8A458290099
:100970002000FFF75BFCDFF89C18280000F05EFA0F
:1009800037BD00006E9583373EB50B00B2F5800F82
:1009900015D2DFF87848002101910092DBB20722DE
:1009A0002100C0B2FFF726FCDFF8645829002000C0
:1009B000FFF73CFCDFF85C18280000F03FFA37BD79
:1009C0000080BB430180BB453EB5DFF84048019342
:1009D000D2B20092C9B20B0008222100C0B2FFF7C8
:1009E00009FCDFF82C5829002000FFF71FFCDFF876
:1009F0002418280000F022FA37BD3EB50B00DFF8BE
:100A00000C4800210191D2B20092DBB209222100F0
:100A1000C0B2FFF7EFFBDFF8F85729002000FFF71F
:100A200005FCDFF8F017280000F008FA37BD0000D9
:100A30000000FA413EB5DFF8D447002101910021C2
:100A4000009100230A222100C0B2FFF7D3FBDFF898
:100A5000C05729002000FFF7E9FBDFF8B81728008E
:100A600000F0ECF937BD000001007A453EB5DFF833
:100A70009C47002101910021009100230B222100BD
:100A8000C0B2FFF7B7FBDFF8885729002000FFF757
:100A9000CDFBDFF88017280000F0D0F937BD3EB558
:100AA000DFF86847002101910021009100230C220A
:100AB0002100C0B2FFF79EFBDFF854572900200049
:100AC000FFF7B4FBDFF84C17280000F0B7F937BD8B
:100AD0003EB5DFF838470021019100210091002345
:100AE0000D222100C0B2FFF785FBDFF82457290053
:100AF0002000FFF79BFBDFF81C17280000F09EF991
:100B000037BD00003EB5DFF8044700210191002108
:100B1000009100230E222100C0B2FFF76BFBDFF82B
:100B2000F05629002000FFF781FBDFF8E8162800C7
:100B300000F084F937BD3EB5DFF8D04600210191C1
:100B40000021009100230F222100C0B2FFF752FBC9
:100B5000DFF8BC5629002000FFF768FBDFF8B41669
:100B6000280000F06BF937BD3EB5DFF8A046002144
:100B7000019100210091002310222100C0B2FFF753
:100B800039FBDFF88C5629002000FFF74FFBDFF818
:100B90008416280000F052F937BD3EB5DFF86C46E8
:100BA0000021019100210091002311222100C0B2F7
:100BB000FFF720FBDFF8585629002000FFF736FB2F
:100BC000DFF85016280000F039F937BD7CB5040075
:100BD000DFF83856002001900020009000231222F8
:100BE00029002000C0B2FFF705FBDFF824663100C2
:100BF0002800FFF71BFBDFF81C562900300000F02F
:100C00001DF9022229002000C0B200F04FF980B285
:100C100076BDE0B50B00002101910092DBB201220C
:100C2000DFF8E815C0B2FFF7E5FA07BDF84D000898
:100C3000E0B50B000021019100210091DBB20222FE
:100C4000DFF8C815C0B2FFF7D5FA07BDE0B50B0055
:100C5000002101910092DBB20322DFF8B015C0B28F
:100C6000FFF7C8FA07BDE0B50B0000210191002194
:100C70000091DBB20422DFF89415C0B2FFF7BAFA94
:100C800007BDE0B50B00002101910092DBB2052207
:100C9000DFF87815C0B2FFF7ADFA07BDE0B50B007D
:100CA00000210191002100910622DFF86015C0B2F9
:100CB000FFF7A0FA07BDE0B50B00002101910092FB
:100CC000DBB20722DFF84415C0B2FFF793FA07BD85
:100CD000044C0008E0B50193D2B20092C9B20B00F7
:100CE0000822DFF82815C0B2FFF784FA07BDE0B587
:100CF0000B0000210191D2B20092DBB20922DFF891
:100D00000C15C0B2FFF776FA07BDE0B500210191DE
:100D10000021009100230A22DFF8F014C0B2FFF78F
:100D200069FA07BDE0B5002101910021009100237F
:100D30000B22DFF8D814C0B2FFF75CFA07BDE0B5AC
:100D4000002101910021009100230C22DFF8BC1446
:100D5000C0B2FFF74FFA07BD7E040020E0B50021C6
:100D600001910021009100230D22DFF8A014C0B2F0
:100D7000FFF740FA07BDE0B5002101910021009185
:100D800000230E22DFF88414C0B2FFF733FA07BD48
:100D9000E0B5002101910021009100230F22DFF82E
:100DA0006C14C0B2FFF726FA07BDE0B5002101912F
:100DB0000021009100231022DFF85014C0B2FFF789
:100DC00019FA07BDE0B5002101910021009100232F
:100DD0001122DFF83814C0B2FFF70CFA07BDE0B5F6
:100DE000002101910021009100231222DFF81C1440
:100DF000C0B2FFF7FFF907BD38B5DFF81444210092
:100E0000DFF80804FFF712FADFF808542900200081
:100E100000F014F8280032BD285400080100C9B2BF
:100E2000002907D00100C9B2002905D00100C9B2CC
:100E3000022901DAC0B200E0FF207047F8B50400D3
:100E40000D000020DFF8D4130870002607E000BF73
:100E50000178491C017001781429F8DB761C3000F8
:100E6000C0B204281FDADFF8B87300223989786825
:100E700000F027FB0A20009002233000C0B205EBEF
:100E800040023000C0B204EB4001DFF8980300F0EC
:100E9000C1FC01223989786800F013FBDFF8880370
:100EA00000210170D7E7F1BDA453000870B40023FE
:100EB00001250CE02C00E4B201EB44040600F6B27C
:100EC000A65D541BE4B2E400A64033436D1C2C0025
:100ED000E4B2042CEEDB180070BC704738B50C008F
:100EE00000251821C0B2FFF7AFFCD0490A68108076
:100EF000E4B2002C15D0022C1DD017D3042C24D022
:100F00001ED3062C2BD025D3082C34D02CD30A2C5E
:100F10003FD037D30C2C4AD042D30E2C55D04DD3D2
:100F200057E00868057815F0010552E00868008868
:100F3000C0F340054DE008680088C0F3800548E034
:100F400008680088C0F3C00543E008680088C0F363
:100F500000153EE008680088C0F3411539E00868D4
:100F60000088C0F3C01534E008680588ADB22D0ACA
:100F700015F001052DE008680588ADB26D0A15F081
:100F8000010526E008680588ADB2AD0A15F0010537
:100F90001FE008680588ADB2ED0A15F0010518E0FC
:100FA00008680588ADB22D0B15F0010511E0086841
:100FB0000588ADB26D0B15F001050AE008680588DB
:100FC000ADB2AD0B15F0010503E008680588ADB2C0
:100FD000ED0B2800C0B232BD0100C9B2192906DAF2
:100FE0008D4AC0B2142148431044401C00E085A043
:100FF0007047000038B504000D0095ED050AFFF7B5
:10100000E7FAA08395ED060AFFF7F6FAE08395ED7F
:10101000070AFFF705FB208495ED080AFFF714FB8C
:10102000608495ED090AFFF723FBA0849FED760A03
:10103000D5ED0A0A60EE800A95ED001AC0EE810A2D
:10104000FDEEE00A10EE900A84F82600D5ED0B0ABA
:1010500060EE800A95ED001AC0EE810AFDEEE00A0E
:1010600010EE900A84F82700D5ED0C0A60EE800A95
:1010700095ED001AC0EE810AFDEEE00A10EE900A2E
:1010800084F82800D5ED0D0A20EE800AD5ED000A7F
:1010900080EE200ABDEEC00A10EE100A84F8290086
:1010A00095ED0E0AFFF7FCFA608595ED0F0AFFF744
:1010B0000BFB84F82C0095ED100AFFF719FB84F860
:1010C0002D0095ED110AFFF729FB84F82E0095F805
:1010D000480084F82F0095ED130AFFF739FB84F8D8
:1010E000310095ED140AFFF763FB84F8320095F8A0
:1010F000540084F8330095F8550084F83400B5F8AE
:101100005600E086A28B04212078A3681B689847CC
:10111000E28B05212078A3681B689847228C062162
:101120002078A3681B689847628C07212078A36801
:101130001B689847A28C08212078A3681B689847F1
:1011400094F8262009212078A3681B68984794F812
:1011500027200A212078A3681B68984794F8282044
:101160000B212078A3681B68984794F829200C214C
:101170002078A3681B689847628D0D212078A368AA
:101180001B68984794F82C200E212078A3681B68D0
:10119000984794F82D200F212078A3681B68984762
:1011A00094F82E2010212078A3681B68984794F8A3
:1011B0002F2011212078A3681B68984794F83120CC
:1011C00013212078A3681B68984794F832201421D3
:1011D0002078A3681B68984794F83320152120785D
:1011E000A3681B68984794F8342016212078A368D8
:1011F0001B689847E28E17212078A3681B689847E0
:1012000031BD0000000000000000804330040020D9
:101210006804002070040020044C00087E040020B4
:101220005C040020D00300207F04002094000020F4
:101230002DE9F84305000C00002000200020206864
:10124000000404D1CE21DFF8DC0200F065FD606807
:10125000002831D0606801282ED0606811282BD07A
:101260006068022828D06068122825D06068DFF8FE
:10127000B812884220D06068DFF8B01288421BD0D4
:101280006068DFF8AC12884216D06068DFF8A412FC
:10129000884211D06068DFF8A01288420CD06068E4
:1012A000DFF89812884207D06068032804D0CF2165
:1012B000DFF8700200F030FDA06800280AD0A068B6
:1012C000012807D0A068022804D0D021DFF85402FA
:1012D00000F022FD00263EE0062304E0DFF8600275
:1012E0008542F9D1052316F00300C0B28000834087
:1012F0001A433000800841F82020DFF848120868BF
:1013000030EA08006268D20301D558EA000008609C
:10131000DFF83412086830EA08006268920301D5E9
:1013200058EA00000860DFF82412086830EA080074
:101330006268D20201D558EA00000860DFF8101296
:10134000086830EA08006268920202D558EA00088C
:1013500040460860761C102E80F0B180012717FAF5
:1013600006F0D4F8008010EA08088045F2D16068E1
:10137000022802D06068122821D120690D2806D3E6
:1013800020690F2803D0E121664800F0C5FC300039
:10139000C00805EB8000016A0F2216F00700C0B2FA
:1013A000800082409143226916F00700C0B280009D
:1013B000824011433000C00805EB800001622968BB
:1013C0005FF003093000C0B2400019FA00F0814319
:1013D000227912F003023000C0B240008240114373
:1013E00029606068012808D06068022805D060681C
:1013F000112802D06068122823D1E068002809D0A3
:10140000E068012806D0E068032803D0F4214548AD
:1014100000F082FCA9683000C0B2400019FA00F068
:101420008143E2683000C0B2400082401143A960AD
:101430006868B740B8436168C1F30011B140084320
:101440006860E9683000C0B2400019FA00F931EA7A
:101450000901A2683000C0B2400082401143E96037
:101460006068C0007FF576AF3A48016851F001012D
:10147000016039493000800851F820200F2316F010
:101480000300C0B2800083409A43B5F1904F01D170
:10149000002328E73148854201D1012323E7304862
:1014A000854201D102231EE72E48854201D1032344
:1014B00019E72D4885427FF411AF042313E7BDE8F7
:1014C000F18370B505000E001400300080B20028D2
:1014D00004D140F2AF11134800F01EFC2000C0B24E
:1014E000002808D02000C0B2012804D04FF4D871E1
:1014F0000C4800F011FCE4B2002C01D02E8300E077
:101500006E8370BD80B519490A6803009BB21A4208
:1015100005D0020092B20A6080B200F0CCFD01BD9D
:1015200000000000385000080000111000002110D9
:1015300000003110000012100000221000003210D4
:101540000014004800040140040401400804014064
:101550000C0401401810024008000140000400483B
:1015600000080048000C0048001000481404014026
:1015700010B50400002C01D101204AE12068DFF8F9
:10158000C015884209D02068DFF8B815884204D019
:10159000E421DFF8B40500F0BFFB6068002808D044
:1015A0006068B0F5827F04D0E521DFF89C0500F08B
:1015B000B3FBA06800280CD0A068B0F5806F08D0FD
:1015C000A068B0F5004F04D0E621DFF87C0500F0FC
:1015D000A3FBE068B0F5706F34D0E068B0F5606FE1
:1015E00030D0E068B0F5506F2CD0E068B0F5406FB7
:1015F00028D0E068B0F5306F24D0E068B0F5206FF7
:1016000020D0E068B0F5106F1CD0E068B0F5006F36
:1016100018D0E068B0F5E06F14D0E068B0F5C06FA6
:1016200010D0E068B0F5A06F0CD0E068B0F5806F26
:1016300008D0E068B0F5407F04D0E721DFF8080566
:1016400000F06AFB2069002807D02069022804D036
:10165000E821DFF8F40400F05FFB6069002807D0A0
:101660006069012804D0E921DFF8DC0400F054FBB4
:10167000A069B0F5007F0BD0A069002808D0A06950
:10168000B0F5802F04D0EA21DFF8BC0400F044FB61
:10169000606B082807D0606B002804D0EB21DFF8CE
:1016A000A80400F039FBE069002819D0E069082897
:1016B00016D0E069102813D0E069182810D0E0692E
:1016C00020280DD0E06928280AD0E069302807D00A
:1016D000E069382804D0EC21DFF86C0400F01CFB32
:1016E000206A002807D0206A802804D0ED21DFF886
:1016F000580400F011FB606A002807D0606A1028C7
:1017000004D0EE21DFF8400400F006FBA06A0028B8
:1017100008D0A06AB0F5005F04D0EF21DFF82804FC
:1017200000F0FAFAE06A002803D0E06AB0F5803FE2
:1017300004D3F021DFF8100400F0EEFA206B00284B
:101740000AD0206B012807D0206B022804D0F12199
:10175000DFF8F40300F0E0FA022084F85D002000D6
:1017600000F0E3FC2068006830F040002168086069
:1017700040F20172E068904201D3002101E04FF491
:101780008051E068B0F5706F05D0E068B0F5E06FAB
:1017900001D00020A062206B002807D1E0689042B1
:1017A00002D30220206301E0012020636268A06868
:1017B00002432069024360690243A06910F400708B
:1017C0000243E0690243206A0243A06A02432068A0
:1017D0000260206B022805D12068006850F4006088
:1017E00022681060A269120C12F00402606A0243BF
:1017F000606B0243E0680243114320684160E06A85
:1018000021680861002084F85E00012084F85D00F2
:10181000002010BD2DE9FC4105000C001700984682
:101820000020ADF800000020A868002805D040F294
:10183000F321DFF8180300F06FFA95F85D00012836
:1018400001D0022079E1002C05D0002F03D04046C2
:1018500080B2002801D101206FE100F0BBFC06003E
:1018600095F85C00012801D1022066E1012085F88D
:101870005C00052085F85D00002085F85E002F647F
:10188000A5F84680A5F84480AC63A5F83E80A5F88D
:101890003C80A86AB0F5005F0BD12868006830F47E
:1018A0000050296808602868006850F400502968D2
:1018B000086040F20170E968814203D2B5F8461031
:1018C000022906DB2968496831F480512A68516091
:1018D00005E02968496851F480512A6851602968F7
:1018E0000968490605D42968096851F040012A6849
:1018F0001160089CE96881424BD3E88F002804D12D
:10190000B5F84600002800F0B680E88F00281AD00D
:1019100028688068800716D5A86B00882968C86089
:10192000A86B801CA863E88F401EE887E88F00281A
:1019300009D1A86AB0F5005F05D12868006850F4A5
:10194000805029680860B5F8460000280FD0286844
:101950008068C0070BD52868C068296C0880286C8F
:10196000801C2864B5F84600401EA5F8460014F116
:10197000010FC2D0002C04D000F02CFC801B84424C
:10198000BBD2012085F85D00002085F85C000320B3
:10199000D3E0E88F002803D1B5F8460000286AD0CC
:1019A000E88F002827D028688068800723D5E88F33
:1019B00003280ADBA86B00882968C860A86B801C14
:1019C000A863E88F801EE88708E0A86B411CA96324
:1019D000007829680873E88F401EE887E88F0028A0
:1019E00009D1A86AB0F5005F05D12868006850F4F5
:1019F000805029680860B5F84600002829D028687A
:101A00008068C00725D5B5F84600022816DB28688F
:101A1000C068296C0880286C801C2864B5F84600D2
:101A2000801EA5F84600B5F84600022811DA28689D
:101A3000406850F48050296848600AE0286C411CD6
:101A400029642968097B0170B5F84600401EA5F895
:101A5000460014F1010F9CD0002C04D000F0BAFB1A
:101A6000801B844295D2012085F85D00002085F816
:101A70005C00032061E0A86AB0F5005F35D1230067
:101A800001220121280000F063F8002805D095F814
:101A90005E0050F0020085F85E00E868B0F5706FF7
:101AA00006D12868C068ADF80000BDF800001CE051
:101AB0002868007BADF80000BDF80000286B022804
:101AC00013D1230001220121280000F041F8002851
:101AD00005D095F85E0050F0020085F85E00286899
:101AE000007BADF80000BDF800002100280000F0E8
:101AF000D2F8002801D003201FE0012085F85D0006
:101B000028688068C0060ED595F85E0050F0020087
:101B100085F85E007FF0100029688860002085F855
:101B20005C00012009E0002085F85C0095F85E006B
:101B3000002801D0012000E00020BDE8F68100006F
:101B400000380040003C0040E0500008E050000831
:101B50002DE9F04105000E0017001C0000F03AFBD3
:101B60008046286880683040B8423AD014F1010FAE
:101B7000F7D0002C05D000F02DFBB0EB080084421C
:101B8000EFD22868406830F0E00029684860686853
:101B9000B0F5827F0DD1A868B0F5004F03D0A868DA
:101BA000B0F5806F05D12868006830F040002968E2
:101BB0000860A86AB0F5005F0BD12868006830F4AF
:101BC0000050296808602868006850F400502968AF
:101BD0000860012085F85D00002085F85C00032086
:101BE00000E00020BDE8F0812DE9FC4106000F0077
:101BF00014001D0000F0EEFA80463068806838401E
:101C0000A04245D0B7F5C06F07D1002C05D1306890
:101C1000007B8DF800009DF8000015F1010FECD05D
:101C2000002D05D000F0D6FAB0EB08008542E4D2D2
:101C30003068406830F0E000316848607068B0F5A6
:101C4000827F0DD1B068B0F5004F03D0B068B0F519
:101C5000806F05D13068006830F04000316808605E
:101C6000B06AB0F5005F0BD13068006830F4005006
:101C7000316808603068006850F4005031680860CE
:101C8000012086F85D00002086F85C00032000E05B
:101C90000020BDE8F68138B504000D002B000022BD
:101CA0004FF4C0512000FFF79FFF002807D094F8A1
:101CB0005E0050F0200084F85E00032021E02B003D
:101CC000002280212000FFF743FF002807D094F86E
:101CD0005E0050F0200084F85E00032011E02B002D
:101CE00000224FF4C0612000FFF77EFF002807D0DC
:101CF00094F85E0050F0200084F85E00032000E0BD
:101D0000002032BD80B500F01BFB00F022FD00F08A
:101D1000E1FD00F03FF8FEE77047F0B402461068BE
:101D200095681318506803EB5004C0071DD54D4447
:101D30001BE013F8017B05F8017B491EF9D1A0B126
:101D4000B60813F8011B06F00306032E08BF13F8AC
:101D5000016B01EB06214942801C294405D011F892
:101D6000016B05F8016B401EF9D1A3420ED013F8A8
:101D7000016B16F0030104BF13F8011BC91C3009E5
:101D80000F28DAD113F8010B0F30D6E7F0BC02F1BF
:101D90000C0070472DE9F047BB4DBC49280000F00E
:101DA000C8FD00F06FFE00F0EFFE0400002710E019
:101DB0003800C0B200F0A8FCC0B200F02DFD060053
:101DC0003900C9B2B020414304EB01007168884773
:101DD0007F1C3800C0B20028EAD0AD49280000F0CE
:101DE000A8FD00F04FFE0425002000F08DFC824687
:101DF00001E01AF1010A002000F086FC5146C9B248
:101E000088424FD35046C0B200F006FD06000020C5
:101E1000FFF704F8070021E0434601223900C9B268
:101E20005046C0B2D6F808C0DCF810C0E047012226
:101E30003900C9B25046C0B2B3689B6C98470028BD
:101E4000F5D04FF47A7000F0A3FE19F1010948466D
:101E50002900C0B2C9B28842DED37F1C0120FEF740
:101E6000DDFF3900C9B28842C3D35046C0B240003A
:101E700050FA87F15820414304EB010898F85410B8
:101E8000022000F007F998ED010ABCEEC00A10EE3E
:101E9000101A00FB01F02900C9B2B0FBF1F85FF0A5
:101EA0000009D4E740F6C41000F072FE002000F0F4
:101EB0002BFC050024E02800C0B2400050FA87F156
:101EC0005820414304EB010090ED040AFEF76EFB3D
:101ED000020001213800C0B23B00DBB206EB8303F5
:101EE000DB689B681B6D98477F1C0120FEF796FFFF
:101EF0003900C9B28842DED2B068C06C80476D1C20
:101F0000002000F001FC2900C9B2884204D300205F
:101F1000FEF784FF0700E8E742F2107000F038FE99
:101F2000002000F0F1FB050016E03800C0B23900D7
:101F3000C9B206EB8101C9688968D1F88010884769
:101F40007F1C0120FEF76AFF3900C9B28842ECD23B
:101F5000B068C06C80476D1C002000F0D5FB2900E4
:101F6000C9B2884204D30020FEF758FF0700E8E713
:101F70000825002000F0C8FB824601E01AF1010AA2
:101F8000002000F0C1FB5146C9B288424FD35046F1
:101F9000C0B200F041FC06000020FEF73FFF070042
:101FA00021E0434601223900C9B25046C0B2D6F8FA
:101FB00008C0DCF810C0E04701223900C9B2504621
:101FC000C0B2B3689B6C98470028F5D04FF47A7084
:101FD00000F0DEFD19F1010948462900C0B2C9B27E
:101FE0008842DED37F1C0120FEF718FF3900C9B2FA
:101FF0008842C3D35046C0B2400050FA87F15820FF
:10200000414304EB010898F85410022000F042F814
:1020100098ED010ABCEEC00A10EE101A00FB01F0A8
:102020002900C9B2B0FBF1F85FF00009D4E7002045
:1020300000F06AFB040016E02800C0B22900C9B213
:1020400006EB8101C9688968D1F8881088476D1C42
:102050000120FEF7E3FE2900C9B28842ECD2B06845
:10206000C06C8047641C002000F04EFB2100C9B208
:10207000884204D30020FEF7D1FE0500E8E70020E7
:1020800000F092FDBDE8F08764030020D052000804
:10209000F052000830B402000120002403E01300D5
:1020A000DBB25843641C23000D00DBB2EDB2AB423F
:1020B000F5D330BC704780B580B2012807D0022824
:1020C00008D0B0F5005F07D100F056FB04E000F047
:1020D0004FFB01E000F04EFB01BD30B4002513E0E2
:1020E00050F8042BD30744BFA9F101039A18091F24
:1020F000042942F8045BFAD213468C0744BF1580CA
:102100009B1CC90748BF1D7050F8041B0029E7D16C
:1021100030BC704780B5072000F02DFE0022002162
:102120005FF0FF3000F03BFE01BD00B585B00068F8
:102130002549884218D12248016851F48021016064
:102140002248016851F4804101604FF460400090E2
:1021500002200190002002900320039005200490AB
:1021600069461848FFF764F805B000BD00B585B0B2
:1021700000681749884220D11148016851F40031A4
:1021800001601248016851F4003101600C20009098
:102190000220019000200290032003900720049069
:1021A00069465FF09040FFF743F8002200212620A7
:1021B00000F0F5FD262000F00FFE05B000BD000088
:1021C0001410024000040048003800401C10024077
:1021D0000044004001480068704700BF78040020B8
:1021E00080B59EB0022005900120099010200A9031
:1021F00002200C9000200D905FF460100E9005A856
:1022000000F0F2FF052000900220019000200290D3
:102210004FF480600390002004900221684601F092
:10222000C1FB02200F90002012900FA800F0FCFDCF
:102230003D48016851F0010101601FB000BD80B54B
:102240000121002000F0C0FC01BD10B5374C38481A
:1022500020604FF4827060600020A0604FF4E06066
:10226000E06002202061012060614FF40070A061F5
:1022700000202062002060620020A06200206063D5
:1022800001F0E5FD2B49B0FBF1F0010089B2022914
:1022900005DA0020E0612000FFF76AF910BD0100B7
:1022A00089B2042901DA0820F4E7010089B208297B
:1022B00001DA1020EEE7010089B2102901DA1820B6
:1022C000E8E7010089B2202901DA2020E2E70100D5
:1022D00089B2402901DA2820DCE7010089B280298F
:1022E00001DA3020D6E780B2B0F5807F01DA3820FD
:1022F000D0E7FEE780B51048104901605FF4E13196
:102300004160002181600021C160002101610C2138
:102310004161002181610021C16100210162002130
:10232000416201F0C3FD01BD18100240D00300203E
:1023300000380040404B4C00640300200044004043
:1023400080B502F0D7FAFFF74BFFFFF778FFFFF7F2
:102350007CFFFFF7CFFF01BD30B585B0DFF8082562
:10236000DFF808452168106801432160108900905A
:1023700011200190002002900320039069465068CC
:10238000FEF756FFDFF8E82421681068014321605A
:1023900010890090DFF8DC54019500200290694616
:1023A0005068FEF745FF00220021062000F0F7FCF0
:1023B000DFF8C4242168106801432160108900906F
:1023C00001950020029069465068FEF731FF002217
:1023D0000021072000F0E3FC002000F095F9050043
:1023E00020E0DFF898240C2321682800C0B258436D
:1023F0001058014321602800C0B25843104400899E
:102400000090012001900020029003200390694673
:102410002800C0B203FB00F302EB03004068FEF7A4
:1024200007FF6D1C002000F06FF92900C9B2884237
:10243000D7D205B030BD38B5DFF82C440022218951
:102440006068FFF73EF8012221896068FFF739F8DC
:10245000002000F059F9040010E02800C0B2FEF797
:1024600037FB2800C0B2FEF7B1FB6D1C0120FEF760
:10247000D5FC2900C9B28842EFD2641C002000F0CC
:1024800043F92100C9B288420FD32000C0B200F046
:1024900043F9DFF8EC03012201894068FFF711F8E6
:1024A0000020FEF7BBFC0500E0E7002000F02CF95F
:1024B000C0B200F031F931BD80B5C0B2012806D1FB
:1024C000062000F089FC072000F086FC05E00620CD
:1024D00000F087FC072000F084FC01BD70B50C0003
:1024E00015001E00C0B200F017F9002806D0320017
:1024F0002900C9B22000C0B2FEF78AF970BD38B514
:102500000C001500C0B200F007F9002806D0290021
:10251000C9B22000C0B2FEF797F900E0FF2032BD3B
:1025200070B50C0015001E00C0B200F0F5F80028D0
:1025300006D032002900C9B22000C0B2FEF7B2F9BD
:1025400070BD38B50C001500C0B200F0E5F80028E9
:1025500005D02900C9B22000C0B2FEF7C1F931BDD3
:1025600070B50C0015001E00C0B200F0D5F80028B0
:1025700006D032002900C9B22000C0B2FEF7CCF963
:1025800070BD38B50C001500C0B200F0C5F80028C9
:1025900004D029002000C0B2FEF7D7F931BD70B5D4
:1025A0000C0015001E00C0B200F0B6F8002806D0DE
:1025B00032002900C9B22000C0B2FEF7E5F970BDB3
:1025C00070B50C0015001E00C0B200F0A5F8002880
:1025D00008D0049B3200D2B22900C9B22000C0B298
:1025E000FEF7F2F970BD70B50C0015001E00C0B208
:1025F00000F092F8002807D03200D2B22900C9B208
:102600002000C0B2FEF7F9F970BD10B50C00C0B2E1
:1026100000F082F8002803D02000C0B2FEF70AFACA
:1026200010BD10B50C00C0B200F076F8002803D041
:102630002000C0B2FEF71AFA10BD10B50C00C0B2EF
:1026400000F06AF8002803D02000C0B2FEF727FA95
:1026500010BD10B50C00C0B200F05EF8002803D029
:102660002000C0B2FEF734FA10BD10B50C00C0B2A5
:1026700000F052F8002803D02000C0B2FEF742FA62
:1026800010BD10B50C00C0B200F046F8002803D011
:102690002000C0B2FEF74FFA10BD10B50C00C0B25A
:1026A00000F03AF8002803D02000C0B2FEF75CFA30
:1026B00010BD10B50C00C0B200F02EF8002803D0F9
:1026C0002000C0B2FEF769FA10BD10B50C00C0B210
:1026D00000F022F8002804D02000C0B2FEF776FAFD
:1026E00000E0002010BD38B50C001500C0B200F0AD
:1026F00013F8002806D02900C9B22000C0B2FEF7A6
:10270000EDFB00E0FF2032BD0100C9B2002901D17C
:10271000C0B200E0FF20704710B40100C9B2002928
:1027200014D157490C22554B0400E4B254431C59B0
:102730000C600400E4B254431C4464684C60C0B2B2
:102740005043184400890881012000E0002010BC9B
:10275000704780B50020FFF7D7FFC0B2FFF7DCFF5E
:10276000FFF7FAFDFFF767FE0120FFF7A5FE01BDA9
:1027700000BF704700BF704780B53B480022018909
:102780004068FEF79EFEFEE780B501003D4800F080
:1027900091F801BD80B501003B4800F08BF801BD08
:1027A00080B50100394800F085F801BD80B5010011
:1027B000374800F07FF801BD80B501003548FEF7CD
:1027C00019FC01BD80B501003348FEF713FC01BDC3
:1027D00080B501003148FEF70DFC01BD80B5010058
:1027E0002F48FEF707FC01BD80B501002D48FEF71C
:1027F00001FC01BD80B501002B48FEF7FBFB01BDCC
:1028000080B501002948FEF7F5FB01BD80B5010048
:102810002748FEF7EFFB01BD38B504002500002076
:10282000FFF772FFEDB2854201D116481AE025008C
:102830000120FFF769FFEDB2854201D1124811E096
:1028400025000220FFF760FFEDB2854201D10F485D
:1028500008E00320FFF758FFE4B2844201D10C489E
:1028600000E0002032BD00003403002014100240BC
:1028700040030020000021104C03002058030020DA
:102880005C040020D4020020EC020020040300209D
:102890001C030020F4000020300100206C01002007
:1028A000A8010020E4010020200200205C0200209A
:1028B0009802002038B504000D002078616988472F
:1028C0002800E1684968884715F15800216949687E
:1028D000884731BD10B53C4C3CA1200000F029F8E0
:1028E000DFF87412200000F024F8DFF870122000E6
:1028F00000F01FF8DFF86812200000F01AF8DFF887
:102900006412200000F015F8DFF85C12200000F0DF
:1029100010F86DA1200000F00CF8DFF85012200034
:1029200000F007F8DFF84812200000F002F810BDB0
:10293000000080B500231A00531CD2B28A5C002A22
:10294000F9D15A1E0A23D2B292B201F015FB01BD91
:1029500010B504002068808CB4F85A10012902D008
:10296000C0B20D282FD1B4F85A00401CA4F85A0068
:10297000606D401E60650020616D087074A12000CC
:10298000FFF7D7FF2068C0698006FBD42068006885
:1029900030F020002168086094F86900322803D1E3
:1029A000122084F869000EE02068006830F480701E
:1029B00021680860206880684008400021688860BD
:1029C000012084F8690010BD640300200D0A000096
:1029D0002DE9F04107000E003800C0B2FFF79CFE61
:1029E00000284DD0634C5AA529002000FFF7A1FF15
:1029F00061492000FFF79DFF00213000C0B200F0C8
:102A000065F801002000FFF794FF5C492000FFF704
:102A100090FF0021FFB2380000F058F801002000BC
:102A2000FFF787FF56492000FFF783FF00271FE0CD
:102A30003900C9B23000C0B2FDF706FF8046380049
:102A4000C0B2FEF7C9FA01002000FFF772FF41A1F2
:102A50002000FFF76EFF0321404600F037F8010029
:102A60002000FFF766FF29002000FFF762FF7F1CB0
:102A70003800C0B21928DBDB29002000FFF759FF1E
:102A8000BDE8F08138B50020FFF73EFE04000EE0FF
:102A90002900C9B22000C0B2FFF79AFF6D1C0120C7
:102AA000FEF7BCF92900C9B28842F1D2641C0020AB
:102AB000FFF72AFE2100C9B2884204D30020FEF7A6
:102AC000ADF90500EBE731BD200D0A0030B400225E
:102AD000C9B2002905D0022907D004D3032906D0A2
:102AE00006E0012204E0022202E0042200E00822C3
:102AF00000211FE037330D00EDB2635519E0214C82
:102B000000230D00EDB263550F25531E5B1ADBB297
:102B10009B0015FA03F30340551E6D1AEDB2AD008C
:102B2000EB401D00EDB20A2DE4DA30330D00EDB2BA
:102B30006355491C0B001400DBB2E4B2A342DED3A0
:102B400010480022C9B2425430BC70470000000057
:102B50000D0A00003A20000090530008DC510008E4
:102B60000C520008B8530008C853000878530008F6
:102B7000105300086403002064520008D853000872
:102B800040540008500400200048704744490008A1
:102B900011B581B0FFF71EFB0400FFF71BFB001B04
:102BA00001998842F9D313BD80B50122DFF8D01016
:102BB0000300DBB231F81310DFF8C830C0B253F8AD
:102BC0002000FEF77EFC01BD30B585B004000D008D
:102BD0002000C0B2002806D1DFF8A010086850F429
:102BE0000020086000E00020DFF89C00016851F040
:102BF000010101602800C0B2002815D1DFF88C0067
:102C00002100C9B230F8110000900020019002208C
:102C10000290032003906946DFF874002200D2B2CC
:102C200050F82200FEF704FBEDB2012D23D1DFF8AE
:102C30005C002100C9B230F8110000900020029021
:102C4000DFF8500001906946DFF844002200D2B25C
:102C500050F82200FEF7ECFADFF83C5000220F217A
:102C60002000C0B2285640B200F099F8E4B22857CC
:102C700040B200F0B1F805B030BD000014100240C1
:102C8000262E00089800002018100240CC520008A0
:102C90009C000020000011105653000810F007009F
:102CA000544B1A684FF6FF010A40534951EA00217C
:102CB0000A431A6070474F480068C0F3022070470B
:102CC000012210F01F018A404C4940B2400941F8EE
:102CD00020207047012210F01F018A40484940B26D
:102CE000400941F820207047020052B2002A08D55E
:102CF0000901444A40B210F00F00104400F8041CCF
:102D000003E00901404A40B21154704710B410F07A
:102D10000700D0F10703052B01D3042301E0D0F114
:102D20000703041D072C01D2002000E0C01E01246F
:102D300014FA03F35B1E1940814014FA00F0401EA0
:102D40001040084310BC704780B5411EB1F1807F30
:102D500001D301200EE0401E2C4908600F215FF0D6
:102D6000FF30FFF7C1FF00202949086007202949EB
:102D70000860002002BD10B50400072C0BD0062C03
:102D800009D0052C07D0042C05D0032C03D0BC217E
:102D90002148FEF7C1FF2000FFF780FF10BD70B58E
:102DA00004000D0016000020102E03D3D4211A4871
:102DB000FEF7B2FF102D03D3D5211748FEF7ACFF65
:102DC000FFF779FF32002900FFF7A0FF0100200084
:102DD00040B2FFF789FF70BD80B540B2FFF770FFCA
:102DE00001BD80B540B2FFF775FF01BD80B5FFF7AB
:102DF000ABFF02BD0CED00E00000FA0500E100E0D1
:102E000080E100E018ED00E000E400E014E000E004
:102E100018E000E010E000E0884F000880B500F006
:102E200001F801BD7047002070B5040000200020AB
:102E30002068DFF8BC1A884204D38221DFF8B40A84
:102E4000FEF76AFF2068C0035CD5DFF8AC0A0168B2
:102E500051F080510160DFF8A46A306850F480704E
:102E60003060FFF7B7F905003068C00506D4FFF7FA
:102E7000B1F9401B6528F7D30320B4E1DFF8805A8D
:102E8000286810F44070616811F44071884209D0DC
:102E9000286830F44070DFF86C1A01220A600022C2
:102EA0000A6028606068B0F5807F25D1FFF792F94D
:102EB00006005FF080400100B1FA81F10100B1FA33
:102EC00081F1C9B2490951F00201022901D12968F1
:102ED00002E0DFF8341A0968B0FA80F010F01F0041
:102EE000C140C80708D4FFF775F9801B41F289314A
:102EF0008842DED3032076E1296831F440716068AE
:102F0000014329602078C00718D5A06800280DD09B
:102F1000A06801280AD0A068022807D0A06803286A
:102F200004D0BB21DFF8CC09FEF7F6FEDFF8441A27
:102F30000A6892089200A06802430A60207880071D
:102F40001BD5E068002810D0E068B0F5803F0CD0B9
:102F5000E068B0F5003F08D0E068B0F5403F04D02D
:102F6000C521DFF89009FEF7D7FEDFF8081A0A68D6
:102F700032F44032E06802430A60207840071BD5F3
:102F80002069002810D02069B0F5802F0CD020696E
:102F9000B0F5002F08D02069B0F5402F04D0CF2124
:102FA000DFF85009FEF7B8FEDFF8C8190A6832F4F6
:102FB0004022206902430A602078800612D56069A9
:102FC000002807D06069102804D0D921DFF824092F
:102FD000FEF7A2FEDFF89C190A6832F01002606961
:102FE00002430A602068800313D5A06BB0F5800F00
:102FF00007D0A06B002804D0E721DFF8F808FEF71F
:103000008BFEDFF874190A6832F48002A06B024369
:103010000A602078400612D5A069002807D0A06970
:10302000202804D0FB21DFF8CC08FEF775FEDFF87E
:1030300044190A6832F02002A06902430A6020683D
:10304000000413D5E069002808D0E069402805D0C5
:1030500040F20D11DFF89C08FEF75EFEDFF8141950
:103060000A6832F04002E06902430A602068800585
:1030700014D5606A002809D0606AB0F5000F05D049
:103080004FF49B71DFF86C08FEF746FEDFF8E81896
:103090000A6832F40002606A02430A60207800067F
:1030A00040D5206A002835D0206AB0F5807F31D025
:1030B000206AB0F5887F2DD0206AB0F5907F29D0A6
:1030C000206AB0F5987F25D0206AB0F5A07F21D086
:1030D000206AB0F5A87F1DD0206AB0F5B07F19D066
:1030E000206AB0F5B87F15D0206AB0F5C07F11D046
:1030F000206AB0F5C87F0DD0206AB0F5D07F09D026
:10310000206AB0F5D87F05D04FF4A371DFF8E4074B
:10311000FEF702FEDFF864180A6832F4F872206ADB
:1031200002430A602068C00414D5A06A002809D0B0
:10313000A06AB0F5807F05D040F28711DFF8B407B0
:10314000FEF7EAFDDFF82C180A6832F48072A06AF4
:1031500002430A602068400314D5E06A002809D0C1
:10316000E06AB0F5806F05D04FF4D471DFF88407C2
:10317000FEF7D2FDDFF8FC170A6832F48062E06ADD
:1031800002430A602068000314D5206B002809D090
:10319000206BB0F5006F05D04FF4D971DFF85407FC
:1031A000FEF7BAFDDFF8CC170A6832F40062206B34
:1031B00002430A602068C00214D5606B002809D061
:1031C000606BB0F5005F05D04FF4DE71DFF82407C7
:1031D000FEF7A2FDDFF89C170A6832F40052606B1C
:1031E00002430A60002070BDF8B504000020002CE6
:1031F00005D14FF44371DFF8FC06FEF78DFD206822
:10320000002809D0207810F00F0F05D140F20D31C1
:10321000DFF8E006FEF780FD2078C00740F1C980A6
:10322000606800280BD06068012808D06068052815
:1032300005D040F21231DFF8BC06FEF76DFDDFF875
:103240003807016811F00C01042907D0016811F05A
:103250000C01082925D10068C00322D54FF4804015
:103260000100B1FA81F1C9B2490951F00101012906
:1032700003D1DFF80C17096805E00100B1FA81F10C
:10328000DFF884160968B0FA80F010F01F00C14022
:10329000C80740F18E806068012800F08A80012014
:1032A00024E3DFF8E06600203070FEF793FF0700AC
:1032B0004FF480452800B0FA80F0C0B2400950F0C9
:1032C0000100012803D1DFF8B806006805E02800F6
:1032D000B0FA80F0DFF8300600682900B1FA81F119
:1032E00011F01F01C840C00708D5FEF773FFC01BCF
:1032F00041F289318842DBD30320F7E26068307005
:10330000DFF878160A6812091201A06802430A6001
:103310006068012826D1FEF75DFF06002800B0FA9C
:1033200080F0C0B2400950F00100012803D1DFF85D
:103330005006006805E02800B0FA80F0DFF8C80504
:1033400000682900B1FA81F111F01F01C840C007DF
:103350002FD4FEF73FFF801B41F289318842DDD335
:103360000320C3E2FEF736FF06002800B0FA80F023
:10337000C0B2400950F00100012803D1DFF8000677
:10338000006805E02800B0FA80F0DFF87C050068EE
:103390002900B1FA81F111F01F01C840C00708D51A
:1033A000FEF718FF801B41F289318842DDD30320EC
:1033B0009CE22078800751D52069002808D0206938
:1033C000012805D040F25E31DFF82805FEF7A4FCA5
:1033D0006069202805D340F25F31DFF81805FEF759
:1033E0009BFCDFF89405016811F00C0F07D0016811
:1033F00011F00C01082966D10068C00363D45FF0A6
:1034000080400100B1FA81F1C9B2490951F00101CE
:10341000012903D1DFF86815096805E00100B1FA58
:1034200081F1DFF8E4140968B0FA80F010F01F00B1
:10343000C140C80704D52069012801D0012055E208
:10344000DFF83C0501685FF0F852B2FA82F231F021
:10345000F801636913FA02F2114301602078000752
:1034600040F1B880A069002808D0A069012805D0E3
:1034700040F29F31DFF87C04FEF74EFCA069002883
:1034800000F088800120DFF800150860FEF7A2FE3A
:1034900005005FF080400100B1FA81F10100B1FA4E
:1034A00081F1DFF864140968B0FA80F010F01F00B1
:1034B000C140C80700F18E80FEF78CFE401B6528D6
:1034C000E7D3032012E22069002838D00120DFF87A
:1034D000BC140860FEF77EFE05005FF0804001002E
:1034E000B1FA81F1C9B2490951F00101012903D1B1
:1034F000DFF88C14096805E00100B1FA81F1DFF80A
:1035000008140968B0FA80F010F01F00C140C80725
:1035100006D4FEF75FFE401B6528DED30320E5E1FD
:10352000DFF85C0401685FF0F852B2FA82F231F021
:10353000F801636913FA02F2114301608EE700207B
:10354000DFF848140860FEF745FE05005FF0804094
:103550000100B1FA81F1C9B2490951F00101012913
:1035600003D1DFF81C14096805E00100B1FA81F10C
:10357000DFF894130968B0FA80F010F01F00C14022
:10358000C8077FF56BAFFEF725FE401B6528DDD32E
:103590000320ABE10020DFF8F0130860FEF71AFE0D
:1035A00005005FF080400100B1FA81F10100B1FA3D
:1035B00081F1DFF854130968B0FA80F010F01F00B1
:1035C000C140C80706D5FEF705FE401B6528E8D3B5
:1035D00003208BE12078400740F1A380E0680028B9
:1035E0000AD0E068012807D0E068052804D040F23E
:1035F000C931C048FEF790FBBF48016851F08051C7
:103600000160BE4E306850F480703060FEF7E2FD1D
:1036100005003068C00506D4FEF7DCFD401B6528B8
:10362000F7D3032062E1B64E306830F00500306019
:10363000FEF7D0FD07005FF080452800B0FA80F06B
:103640002800B0FA80F0C0B2400950F00200022811
:1036500001D1306802E0DFF8B00200682900B1FA59
:1036600081F111F01F01C840C00708D5FEF7B2FD77
:10367000C01B41F289318842DDD3032036E1316835
:1036800031F00501E06801433160E068012824D190
:10369000FEF7A0FD07002800B0FA80F02800B0FA7D
:1036A00080F0C0B2400950F00200022801D1306819
:1036B00002E0DFF8540200682900B1FA81F111F04C
:1036C0001F01C840C0072CD4FEF784FDC01B41F287
:1036D00089318842DFD3032008E1FEF77BFD070034
:1036E0002800B0FA80F02800B0FA80F0C0B240099B
:1036F00050F00200022801D1306801E082480068E1
:103700002900B1FA81F111F01F01C840C00708D5A6
:10371000FEF760FDC01B41F289318842E0D30320EF
:10372000E4E0E06900280AD0E069012807D0E069F8
:10373000022804D040F20D416E48FEF7EDFAE06930
:10374000002800F0D2808C4D286810F00C0008286A
:1037500000F0C980E069022840F09F80206A0028BC
:1037600008D0206AB0F5803F04D040F2164161488D
:10377000FEF7D2FA606A00283CD0606AB0F5802F6C
:1037800038D0606AB0F5002F34D0606AB0F5402FB1
:1037900030D0606AB0F5801F2CD0606AB0F5A01FF1
:1037A00028D0606AB0F5C01F24D0606AB0F5E01F71
:1037B00020D0606AB0F5001F1CD0606AB0F5101F01
:1037C00018D0606AB0F5201F14D0606AB0F5301FC1
:1037D00010D0606AB0F5401F0CD0606AB0F5501F81
:1037E00008D0606AB0F5601F04D040F2174141482C
:1037F000FEF792FA664E00203060FEF7EBFC070001
:103800004020B0FA80F0C0B2400950F00100012819
:1038100002D15B48006804E04020B0FA80F03A48EA
:1038200000684021B1FA81F111F01F01C840C007C2
:1038300006D5FEF7CFFCC01B6528E1D3032055E079
:10384000296831F47411606A0143206A01432960D8
:1038500001203060FEF7BEFC04004020B0FA80F08A
:10386000C0B2400950F00100012802D1444800686C
:1038700004E04020B0FA80F0234800684021B1FA0B
:1038800081F111F01F01C840C0072ED4FEF7A2FC41
:10389000001B6528E1D3032028E000203C49086094
:1038A000FEF798FC04004020B0FA80F0C0B2400956
:1038B00050F00100012802D13148006804E04020A6
:1038C000B0FA80F0104800684021B1FA81F111F09F
:1038D0001F01C840C00708D5FEF77CFC001B652807
:1038E000E1D3032002E0012000E00020F2BD00004F
:1038F000E8921F00E04F00081C10024000700040DA
:1039000020100240400442422410024010B4002023
:1039100000200020002000201748016811F00C0052
:10392000042802D0082802D020E01A481FE04FF4F3
:103930007050B0FA80F0184A11F47013C340D05C94
:103940000E4A12685FF07043B3FA83F3134C12F01F
:103950000F02DA40A25CC90305D50E49B1FBF2F1B2
:1039600000FB01F001E00E49484300E0094810BCAB
:103970007047000030100240041002402C1002403A
:103980000010024002100240800442420000424205
:103990006000424200127A00F85300080854000800
:1039A00000093D002DE9F04104000D000020002C2D
:1039B00005D140F21D11DFF8E004FEF7ADF92078E3
:1039C00010F00F0F05D14FF48F71DFF8CC04FEF724
:1039D000A3F9002D09D0012D07D0022D05D040F20A
:1039E0001F11DFF8B404FEF797F9DFF8B064306810
:1039F00010F00700A84280F0E7803068C008C000DF
:103A000028433060306810F00700A84201D0012040
:103A100008E22078800728D5A06800281DD0A0687B
:103A200080281AD0A068902817D0A068A02814D0A9
:103A3000A068B02811D0A068C0280ED0A068D028F7
:103A40000BD0A068E02808D0A068F02805D040F28C
:103A50003511DFF84404FEF75FF9DFF838140A681F
:103A600032F0F002A06802430A602078C00740F1FB
:103A70009081606800280BD06068012808D06068D9
:103A8000022805D04FF49E71DFF80C04FEF744F9CC
:103A9000606801281DD14FF480400100B1FA81F126
:103AA000C9B2490951F00101012903D1DFF8E0133E
:103AB000096805E00100B1FA81F1DFF8E413096853
:103AC000B0FA80F010F01F00C140C8073FD40120B9
:103AD000A8E1606802281CD14020B0FA80F0C0B292
:103AE000400950F00100012803D1DFF8A403006869
:103AF00005E04020B0FA80F0DFF8A4030068402120
:103B0000B1FA81F111F01F01C840C0071FD4012094
:103B100088E15FF080400100B1FA81F1C9B2490942
:103B200051F00101012903D1DFF86413096805E0B0
:103B30000100B1FA81F1DFF868130968B0FA80F08A
:103B400010F01F00C140C80701D401206AE1DFF86E
:103B50004453296889088900606801432960FEF799
:103B600039FB0600606801280ED1286810F00C00AF
:103B7000042800F00E81FEF72DFB801B41F28931F5
:103B80008842F2D303204DE1606802280ED12868F4
:103B900010F00C00082800F0FC80FEF71BFB801BD7
:103BA00041F289318842F2D303203BE1286810F0CA
:103BB0000C0F00F0EE80FEF70DFB801B41F2893107
:103BC0008842F3D303202DE12078800728D5A06810
:103BD00000281DD0A06880281AD0A068902817D08F
:103BE000A068A02814D0A068B02811D0A068C02870
:103BF0000ED0A068D0280BD0A068E02808D0A0681C
:103C0000F02805D04FF4C271DFF88C02FEF784F87B
:103C1000DFF880120A6832F0F002A06802430A60FE
:103C20002078C00740F1A980606800280BD0606848
:103C3000012808D06068022805D040F28B11DFF817
:103C40005802FEF769F8606801281DD14FF48040E2
:103C50000100B1FA81F1C9B2490951F0010101290C
:103C600003D1DFF82C12096805E00100B1FA81F1F7
:103C7000DFF82C120968B0FA80F010F01F00C14084
:103C8000C8073ED40120CDE0606802281CD1402046
:103C9000B0FA80F0C0B2400950F00100012803D111
:103CA000DFF8EC01006805E04020B0FA80F0DFF8B2
:103CB000F00100684021B1FA81F111F01F01C84004
:103CC000C0071ED40120ADE05FF080400100B1FAD2
:103CD00081F1C9B2490951F00101012902D16C49B0
:103CE000096805E00100B1FA81F1DFF8B411096853
:103CF000B0FA80F010F01F00C140C80701D40120C5
:103D000090E0644F39688908890060680143396030
:103D1000FEF760FA8046606801280ED1386810F01E
:103D20000C00042829D0FEF755FAB0EB080041F248
:103D300089318842F2D3032074E0606802280ED1F2
:103D4000386810F00C00082817D0FEF743FAB0EBE3
:103D5000080041F289318842F2D3032062E03868DA
:103D600010F00C0F09D0FEF735FAB0EB080041F265
:103D700089318842F3D3032054E03068C008C00082
:103D800028433060306810F00700A84201D00120BD
:103D900048E0207840071ED5E068002814D0E0688D
:103DA000B0F5806F10D0E068B0F5A06F0CD0E0687F
:103DB000B0F5C06F08D0E068B0F5E06F04D040F215
:103DC000DB113548FDF7A8FF32490A6832F4E0629A
:103DD000E06802430A60207800071FD520690028A8
:103DE00014D02069B0F5806F10D02069B0F5A06FB5
:103DF0000CD02069B0F5C06F08D02069B0F5E06F35
:103E000004D04FF4F1712448FDF786FF2148016882
:103E100031F46051226951EAC2010160002000F0D2
:103E20007BFD0020BDE8F08110B5FFF76FFD19495B
:103E300009685FF07062B2FA82F21A4B1A4C11F004
:103E4000F001D140615CC8401860186810BD80B5B1
:103E5000FFF7EAFF0F4909685FF46002B2FA82F2E5
:103E6000114B11F4E061D140595CC84002BD80B5EE
:103E7000FFF7DAFF074909685FF4E012B2FA82F24D
:103E8000094B11F46051D140595CC84002BD00009B
:103E900000100240041002408C5000080020024034
:103EA00024100240A0000020E853000810B50400D0
:103EB000002C01D1012056E0A069002811D0206813
:103EC000DFF8A41088421CD020682849884218D006
:103ED00020682749884214D0D9212648FDF71CFFC5
:103EE0000FE02068204988420BD020681F49884293
:103EF00007D020681E49884203D0DE211D48FDF707
:103F00000BFF94F86900002802D12000FEF72EF97B
:103F1000022084F869002068006840084000216899
:103F20000860200000F09CF9012801D101201AE06E
:103F3000606A002802D0200000F0FFFA2068406884
:103F400030F49040216848602068806830F02A0092
:103F5000216888602068006850F0010021680860CE
:103F6000200000F0E1FB10BD00380140004400409B
:103F7000004800403451000870B505000C001E00D8
:103F800095F86900012803D095F86900222863D1CB
:103F9000002C03D0100080B2002801D101205CE089
:103FA00095F86800012801D1022056E0012085F82B
:103FB0006800002085F86A0095F86900222803D17E
:103FC000322085F8690002E0122085F86900A5F822
:103FD0005020A5F8522006E020000088C005C00D42
:103FE00029680885A41CB5F8520000281AD0B5F835
:103FF0005200401EA5F85200330000228021280004
:1040000000F0BFF8002801D0032026E0A868B0F532
:10401000805F02D128690028DED0207829680885D1
:10402000641CE0E7330000224021280000F0A9F8DA
:10403000002801D0032010E095F86900322803D150
:10404000222085F8690002E0012085F8690000203F
:1040500085F86800002000E0022070BD10B5040063
:104060002068C069C0070FD520680068C0050BD55F
:1040700001202168086294F86A0050F0010084F879
:104080006A00012084F869002068C06980070FD5A4
:1040900020688068C0070BD502202168086294F868
:1040A0006A0050F0040084F86A00012084F8690076
:1040B0002068C06940070FD520688068C0070BD50D
:1040C00004202168086294F86A0050F0020084F825
:1040D0006A00012084F869002068C06900070FD5D4
:1040E00020688068C0070BD508202168086294F812
:1040F0006A0050F0080084F86A00012084F8690022
:1041000094F86A00002802D0200000F017FC206814
:10411000C069C0020DD520688068400209D55FF4EF
:10412000801021680862012084F86900200000F0F6
:1041300006FC2068C06980060CD5206800688006EF
:1041400008D5200000F086FB2068806950F0080048
:10415000216888612068C069000606D5206800686B
:10416000000602D5200000F01FFB2068C069400651
:1041700006D520680068400602D5200000F04EFBFE
:1041800010BD2DE9F04105000E0090461C00FEF721
:1041900021F807005FFA88F8B8F1000F2ED12868DF
:1041A000C0693040B04258D014F1010FF7D0002C54
:1041B00004D0FEF70FF8C01B8442F0D228680068D4
:1041C00030F08000296808602868006830F020001E
:1041D000296808602868006830F4807029680860E1
:1041E000286880684008400029688860032085F8B6
:1041F0006900002085F8680003202FE02868C06966
:104200003040B04229D114F1010FF7D0002C04D076
:10421000FDF7E0FFC01B8442F0D22868006830F050
:104220008000296808602868006830F0200029684C
:1042300008602868006830F4807029680860286881
:1042400080684008400029688860032085F869007C
:10425000002085F86800032000E00020BDE8F08120
:10426000F8B5040000201025002000260027606813
:10427000DFF81015884205D340F27F51DFF80805BA
:10428000FDF74AFDA068B0F1805F0CD0A06800285F
:1042900009D0A068B0F5805F05D04FF4B061DFF8B9
:1042A000E804FDF739FDE068002809D0E068B0F5C2
:1042B000005F05D040F28151DFF8CC04FDF72CFD02
:1042C000206900280DD02069B0F5806F09D02069E1
:1042D000B0F5C06F05D040F28251DFF8AC04FDF7B5
:1042E0001BFD606930F00C00002802D160690028D5
:1042F00005D140F28351DFF89004FDF70DFDA06970
:10430000002811D0A069B0F5807F0DD0A069B0F56C
:10431000007F09D0A069B0F5407F05D040F28451FC
:10432000DFF86404FDF7F8FC206A002809D0206A51
:10433000B0F5006F05D040F28551DFF84C04FDF771
:10434000EBFCE069002809D0E069B0F5004F05D02A
:1043500040F28651DFF83004FDF7DEFCA1682069E9
:10436000014360690143E069014320680268DFF8A6
:104370001C0402401143206801602068416831F448
:104380004051E068014320684160A169206A01430F
:104390002068806830F430600143206881602068C4
:1043A000DFF8EC13884214D1DFF8E803006810F05E
:1043B0000300002805D0022809D006D3032802D024
:1043C00042E0012540E002253EE004253CE00825CE
:1043D0003AE02068DFF8C013884218D1DFF8B40350
:1043E000006810F44030002809D0B0F5803F0AD0B2
:1043F000B0F5003F09D0B0F5403F02D024E00025E1
:1044000022E0022520E004251EE008251CE02068AB
:10441000DFF88813884217D1DFF87803006810F4BA
:104420004020002809D0B0F5802F0AD0B0F5002F29
:1044300009D0B0F5402F02D006E0002504E00225A7
:1044400002E0042500E00825E069B0F5004F37D10F
:10445000EDB2002D08D0012D0DD0022D12D0042D6B
:1044600016D0082D1BD020E0FFF7F1FC400061685A
:10447000B0FBF1F61AE0FFF7FAFC40006168B0FB10
:10448000F1F613E0DFF818036168B0FBF1F60DE018
:10449000FFF73CFA40006168B0FBF1F606E05FF41C
:1044A00080306168B0FBF1F600E001274FF6F07153
:1044B0003140C6F34200014389B22068C16039E04F
:1044C000EDB2002D08D0012D0FD0022D16D0042DF5
:1044D0001DD0082D24D02CE0FFF7B9FC6168B0FB9B
:1044E000F1F080B22168C86024E0FFF7C0FC616889
:1044F000B0FBF1F080B22168C8601BE0DFF8A402D5
:104500006168B0FBF1F080B22168C86012E0FFF78B
:10451000FDF96168B0FBF1F080B22168C86009E084
:104520004FF400406168B0FBF1F080B22168C860D0
:1045300000E001273800C0B2F2BD10B50400606A87
:10454000B0F5807F05D340F2E951DFF83C02FDF77A
:10455000E3FB94F82400C00714D5A06A002809D012
:10456000A06AB0F5003F05D040F2EE51DFF8180226
:10457000FDF7D2FB2068416831F40031A06A0143A5
:104580002068416094F82400800713D5E06A002871
:1045900008D0E06AB0F5803F04D040F2F5517A4887
:1045A000FDF7BAFB2068416831F48031E06A0143CD
:1045B0002068416094F82400400713D5206B002840
:1045C00008D0206BB0F5802F04D040F2FC516E482B
:1045D000FDF7A2FB2068416831F48021206B014384
:1045E0002068416094F82400000713D5606B002810
:1045F00008D0606BB0F5004F04D040F20361624810
:10460000FDF78AFB2068416831F40041606B01438B
:104610002068416094F82400C00613D5A06B0028E0
:1046200008D0A06BB0F5805F04D040F20A61564814
:10463000FDF772FB2068816831F48051A06B014363
:104640002068816094F82400800613D5E06B002870
:1046500008D0E06BB0F5005F04D040F211614A4829
:10466000FDF75AFB2068816831F40051E06B01438B
:104670002068816094F8240040063CD520684449B5
:10468000884204D04FF4C3613F48FDF745FB206CDE
:10469000002808D0206CB0F5801F04D040F21961CA
:1046A0003948FDF739FB2068416831F48011206CEE
:1046B000014320684160206CB0F5801F1BD1606C05
:1046C000002810D0606CB0F5001F0CD0606CB0F505
:1046D000800F08D0606CB0F5C00F04D040F21E61AE
:1046E0002948FDF719FB2068416831F4C001606C6E
:1046F00001432068416094F82400000613D5A06CA3
:10470000002808D0A06CB0F5002F04D040F226613C
:104710001D48FDF701FB2068416831F40021A06CC1
:1047200001432068416010BD10B50400002084F8EA
:104730006A002068006800070BD57FF07E430022E6
:104740005FF400112000FFF71CFD002801D00320BA
:1047500016E02068006840070BD57FF07E430022FA
:104760005FF480012000FFF70CFD002801D003203A
:1047700006E0012084F86900002084F86800002029
:1047800010BD00004154890034510008F369FFEF67
:104790000038014030100240004400400048004012
:1047A0000024F40000127A0090F86910122903D056
:1047B00090F8691032292FD1B0F8521000290DD18C
:1047C0000168096831F080010268116001680968B8
:1047D00051F040010068016000201EE08168B1F5E1
:1047E000805F0CD10169002909D1C16C0988C90514
:1047F000C90D02681185C16C891CC16405E0C16CDA
:104800004A1CC264097802681185B0F85210491E2A
:10481000A0F85210002000E00220704780B5016827
:10482000096831F040010268116090F8691032297E
:1048300003D1222180F8691008E0016889684908DD
:10484000490002689160012180F8691000F078F851
:10485000002002BD80B5B0F85C2090F869102229D4
:1048600003D090F86910322942D18168B1F5805F98
:104870000BD10169002908D1416D03689B8C1A4056
:104880000A80416D891C416506E0416D4B1C436502
:1048900003689B8C1A400A70B0F85A10491EA0F8A1
:1048A0005A10B0F85A10002920D10168096831F077
:1048B00020010268116090F86910322903D1122199
:1048C00080F869100EE00168096831F480710268AF
:1048D00011600168896849084900026891600121F6
:1048E00080F8691000F02DF8002002E0002000E0C0
:1048F000022002BD80B50748016851F01001016037
:104900000320FEF738FA002000F006F8FDF702FC5D
:10491000002002BD0020024010B50400FFF784FA19
:104920004FF47A71B0FBF1F0FEF760FA002221003B
:104930005FF0FF30FEF733FA002010BD704770477C
:1049400070477047000010410000C8439A99D93F52
:104950000AD74340000070430000C8430000C8432A
:104960000000A04300000000CDAC16440AD743402D
:104970000AD743400AD743400AD743407B147642C4
:10498000689ACD393598283A3598283A00000000C1
:104990000060524500403F4507FF882E000010414F
:1049A0000000C8439A99D93F0AD74340000070439A
:1049B0000000C8430000C8430000A04300000000FE
:1049C000CDAC16440AD743400AD743400AD74340E8
:1049D0000AD743407B147642689ACD393598283AF5
:1049E0003598283A000000000060524500403F45DD
:1049F00007FF882E000010410000C8439A99D93F54
:104A00000AD74340000070430000C8430000C84379
:104A10000000A04300000000CDAC16440AD743407C
:104A20000AD743400AD743400AD743407B14764213
:104A3000689ACD393598283A3598283A0000000010
:104A40000060524500403F4507FF882E000010419E
:104A50000000C8439A99D93F0AD7434000007043E9
:104A60000000C8430000C8430000A043000000004D
:104A7000CDAC16440AD743400AD743400AD7434037
:104A80000AD743407B147642689ACD393598283A44
:104A90003598283A000000000060524500403F452C
:104AA00007FF882E000010410000C8439A99D93FA3
:104AB0000AD74340000070430000C8430000C843C9
:104AC0000000A04300000000CDAC16440AD74340CC
:104AD0000AD743400AD743400AD743407B14764263
:104AE000689ACD393598283A3598283A0000000060
:104AF0000060524500403F4507FF882E00001041EE
:104B00000000C8439A99D93F0AD743400000704338
:104B10000000C8430000C8430000A043000000009C
:104B2000CDAC16440AD743400AD743400AD7434086
:104B30000AD743407B147642689ACD393598283A93
:104B40003598283A000000000060524500403F457B
:104B500007FF882E000010410000C8439A99D93FF2
:104B60000AD74340000070430000C8430000C84318
:104B70000000A04300000000CDAC16440AD743401B
:104B80000AD743400AD743400AD743407B147642B2
:104B9000689ACD393598283A3598283A00000000AF
:104BA0000060524500403F4507FF882E000010413D
:104BB0000000C8439A99D93F0AD743400000704388
:104BC0000000C8430000C8430000A04300000000EC
:104BD000CDAC16440AD743400AD743400AD74340D6
:104BE0000AD743407B147642689ACD393598283AE3
:104BF0003598283A000000000060524500403F45CB
:104C000007FF882E014142535F504F5300000000C0
:104C1000001603000000000002454C5F504F530097
:104C2000000000000009020000000000034D415296
:104C30004B00000000000000001603000000000010
:104C400004535045454400000000000000140300D8
:104C50000000000005414343000000000000000088
:104C6000000C02008A0000000644454300000000DA
:104C700000000000000C02008A000000074D4158AF
:104C80005F53504545440000000A02004100000007
:104C9000084D494E5F53504545440000000D020049
:104CA000000000001546535F535044000000000010
:104CB000000A020027000000094B56414C5F484F94
:104CC0004C44000000080100290000000A4B564136
:104CD0004C5F52554E000000000801002900000002
:104CE0000B4B56414C5F414343000000000801005C
:104CF000290000000C4B56414C5F44454300000026
:104D000000080100290000000D494E545F53504532
:104D100045440000000E0200080400000E53545FDA
:104D2000534C500000000000000801001900000072
:104D30000F464E5F534C505F414343000008010053
:104D40002900000010464E5F534C505F444543001D
:104D50000008010029000000114B5F544845524DE6
:104D60000000000000040100000000001241444364
:104D70005F4F5554000000000005010000000000D6
:104D8000134F43445F54480000000000000401003A
:104D900008000000145354414C4C5F54480000007C
:104DA000000701004000000016535445505F4D4F6E
:104DB00044450000000801000700000017414C4175
:104DC000524D5F454E00000000080100FF0000004A
:104DD00018434F4E464947000000000000100200F3
:104DE000882E000019535441545553000000000010
:104DF00000100200000000004E4F500000000000B4
:104E0000000000000000534554504152414D000045
:104E100000000002474554504152414D000000003F
:104E2000200152554E00000000000000000050021A
:104E300053544550434C4F434B00000058014D4FD5
:104E4000564500000000000000004002474F544F4C
:104E500000000000000000006001474F544F5F4415
:104E60004952000000006802474F554E54494C001B
:104E700000000000820352454C4541534553570002
:104E800000009202474F484F4D45000000000000CF
:104E90007000474F4D41524B000000000000780069
:104EA0005245534554504F5300000000D80052451E
:104EB00053455444455649434500C000534F46545A
:104EC00053544F5000000000B00048415244535426
:104ED0004F5000000000B800534F465448495A0054
:104EE00000000000A0004841524448495A00000018
:104EF0000000A80047455453544154555300000046
:104F0000D00000001648016851F470010160154995
:104F1000086850F001000860134A13681348034002
:104F200013600B68124803400B60086830F480205F
:104F30000860106830F4FE0010600E48016809092E
:104F4000090101600C490A680C4802400A6000200F
:104F50000B4908605FF000600A4908607047000074
:104F600088ED00E000100240041002400CC07FF801
:104F7000FFFFF6FE2C10024030100240CCFC00FF78
:104F80000810024008ED00E0433A5C5F5F4F776E27
:104F900050726F6A656374735C782D637562652DFA
:104FA00073706E325C447269766572735C53544DF3
:104FB0003332463378785F48414C5F447269766596
:104FC000725C5372635C73746D3332663378785FEE
:104FD00068616C5F636F727465782E630000000017
:104FE000433A5C5F5F4F776E50726F6A65637473AC
:104FF0005C782D637562652D73706E325C447269E6
:10500000766572735C53544D3332463378785F481B
:10501000414C5F4472697665725C5372635C737471
:105020006D3332663378785F68616C5F7263635F9B
:1050300065782E6300000000433A5C5F5F4F776E37
:1050400050726F6A656374735C782D637562652D49
:1050500073706E325C447269766572735C53544D42
:105060003332463378785F48414C5F4472697665E5
:10507000725C5372635C73746D3332663378785F3D
:1050800068616C5F6770696F2E630000433A5C5F14
:105090005F4F776E50726F6A656374735C782D63CF
:1050A0007562652D73706E325C44726976657273D9
:1050B0005C53544D3332463378785F48414C5F44FB
:1050C00072697665725C5372635C73746D333266B9
:1050D0003378785F68616C5F7263632E63000000F1
:1050E000433A5C5F5F4F776E50726F6A65637473AB
:1050F0005C782D637562652D73706E325C447269E5
:10510000766572735C53544D3332463378785F481A
:10511000414C5F4472697665725C5372635C737470
:105120006D3332663378785F68616C5F7370692EB7
:1051300063000000433A5C5F5F4F776E50726F6AA6
:10514000656374735C782D637562652D73706E3260
:105150005C447269766572735C53544D33324633E6
:1051600078785F48414C5F4472697665725C53722F
:10517000635C73746D3332663378785F68616C5F3B
:10518000756172742E63000080B500F01FF8FDF7A2
:1051900045FE01BD80B50220FCF7B4F901BD80B524
:1051A0000120FCF7AFF901BD10B5044C2000FEF75B
:1051B00055FF2000FDF7CCFB10BD0000640300206C
:1051C00080B54FF40050FCF79DF901BD024801681D
:1051D000491C0160704700BF78040020202D2D2D50
:1051E0002D2D2D2D2D2D2D2D2D2D2D2D2D2D2D2DEF
:1051F0002D2D2D2D2D2D2D2D2D2D2D2D2D2D2D2DDF
:105200002D2D2D2D2D2D2D2D0D0A000020447561E5
:105210006C204C3634373020457870616E73696F7E
:105220006E20426F61726420666F722053544D335A
:1052300032204E55434C454F0D0A000010B507492A
:1052400079441831064C7C44163404E00A68081D81
:10525000114488470146A142F8D110BD500000001A
:105260006C00000056616C756573206F6620746871
:105270006520726567697374657273206F66204C70
:10528000363437305F2300004EF68851CEF20001ED
:10529000086840F470000860BFF34F8FBFF36F8F52
:1052A0004FF00070E1EE100A704700002FCEFFFFB4
:1052B0001C01000064030020000000005FCAFFFF23
:1052C00060020000940200000000002000200000A6
:1052D000496E697469616C2076616C7565732066CE
:1052E0006F72207265676973746572733A0D0A0094
:1052F000437573746F6D2076616C75657320666F8E
:1053000072207265676973746572733A0D0A0000E2
:105310002053544D6963726F656C656374726F6E70
:105320006963732C20323031350D0A0D0A000000FC
:1053300000F00DF8002801D0FFF780FFAFF30080E8
:105340000020AFF30080FCF7DDFC00F002F8012044
:10535000704700F001B828000746384600F002F810
:10536000FBE7000080B5AFF30080024A110018206F
:10537000ABBEFBE72600020020582D435542452DC9
:1053800053504E322076312E312E310D0A0000005E
:1053900020582D4E55434C454F2D49484D303241F4
:1053A000310D0A00524556000000000000465744E7
:1053B000000000000001000020537461636B65640D
:1053C000206F6E20000000004E55434C454F2D4687
:1053D0003330325238000000206F6620457870422A
:1053E00072645F230000000000000000010203045B
:1053F0000102030406070809020304050607080959
:105400000A0B0C0D0E0F101001020304050607080D
:10541000090A0B0C0D0E0F10014880470148004788
:10542000054F0008355400085253540000435059AA
:1054300000010000AFF30080FFF726FFFFF778FFC1
:105440000D0A0D0A00000000FFF7FEBFFFF7FEBFC8
:10545000FFF7FEBFFFF7FEBFFFF7FEBFFFF7FEBF80
:10546000FFF7FEBFFFF7FEBFFFF7FEBFFFF7FEBF70
:10547000FFF7FEBFFFF7FEBFFFF7FEBFFFF7FEBF60
:10548000FFF7FEBFFFF7FEBFFFF7FEBFFFF7FEBF50
:10549000FFF7FEBFFFF7FEBFFFF7FEBFFFF7FEBF40
:1054A000FFF7FEBFFFF7FEBFFFF7FEBFFFF7FEBF30
:1054B000FFF7FEBFFFF7FEBFFFF7FEBFFFF7FEBF20
:1054C000FFF7FEBFFFF7FEBFFFF7FEBFFFF7FEBF10
:1054D000FFF7FEBFFFF7FEBFFFF7FEBFFFF7FEBF00
:1054E000FFF7FEBFFFF7FEBFFFF7FEBFFFF7FEBFF0
:1054F000FFF7FEBFFFF7FEBFFFF7FEBFFFF7FEBFE0
:10550000FFF7FEBFFFF7FEBFFFF7FEBFFFF7FEBFCF
:10551000FFF7FEBFFFF7FEBFFFF7FEBFFFF7FEBFBF
:10552000100311080008490412A50412E104100335
:10553000190900084B0412890412C90412FB041053
:1055400003350A00086D04129F0412D104100305EC
:105550000B00083704126904129B0412CD041003D7
:10556000130C00083104124D041267041283041254
:105570009D0412B70412D50412EF0410030B0D00A2
:10558000082504123F04125D0412770412910412DC
:10559000AB0412C50412DF04100CDD0E00087C04FD
:1055A0000020000400480008041006127A00DD24E0
:1055B0000008FF04100321250008430412610412AF
:1055C0008304129F0412C10412E70410030B260087
:1055D000082304123B04125304126B0412830412B6
:1055E0009B0412B30412CB0412E70412F9641200F4
:1055F0000133B92708F31E200001120131F226C53C
:105600003C2101F22AD178F22ADD78F22AE978F2F7
:105610002AF578F329012878F3290D28781289B41E
:1056200012A43C12F404100330010020191021547C
:10563000529518126C1452A81812021852A118127E
:10564000E4144320021812031852AD18125C1452CD
:1056500098181A009D29A04199110F19A892010CC0
:0A5660002150330000061348100625
:040000050800543566
:00000001FF
