:020000040800F2
:1000000088080020D1480008D732000807420008BD
:1000100000000000000000000000000000000000E0
:100020000000000000000000000000000F48000871
:1000300000000000000000001B48000819460008EE
:10004000014900080349000805490008074900085C
:1000500009490008254600080B49000835460008F4
:100060000D4900080F49000811490008134900080C
:100070001549000817490008194900081B490008DC
:100080001D4900081F4900082149000823490008AC
:100090002549000827490008294900082B4900087C
:1000A0002D4900082F49000831490008334900084C
:1000B0004146000835490008374900083949000819
:1000C00030B500210A0018E00B001400E4B210253E
:1000D0006C4303551300DBB210246343C31859600B
:1000E0001300DBB210246343C31899601300DBB222
:1000F00010246343C318D960521C1300DBB2022BD7
:10010000E2DB30BDF0B4049C059D0600F6B210277A
:100110007E438A550200D2B2102672438A18536079
:100120000200D2B210235A438A189460C0B210223F
:1001300050430818C560F0BC7047FEB504000F00BE
:1001400015001E000A480178002904D10121017020
:100150003800FFF7B5FF0999089B2A00200001919C
:1001600000933300D2B23900C0B2FFF7CBFFF7BD26
:1001700086040020F0B500221300140009E01E00E0
:10018000F6B28A555B1C6D1C2E00F6B2022EF6DB11
:10019000641C2500EDB2042D01DA1500F4E701E03E
:1001A000FFE7521C1300DBB2022B00DBABE1D64BA6
:1001B0001400E4B210256C43045D0E256C431B193A
:1001C0001B7B1400E4B20B551300DBB21024634315
:1001D000C35C002B28D0022B61D026D3042B00D186
:1001E0009CE06ED3062B00D1D8E000D2A9E0082B0A
:1001F00000D11BE100D2ECE00A2B00D17CE100D25F
:1002000054E10C2B00D179E100D276E10E2B00D124
:1002100076E100D273E1102B00D173E100D270E1DE
:10022000122BBDD0BDD3BCE7BBE7BF4B1400E4B27B
:100230000C5D1500EDB21026754345196D68142646
:1002400075435D5D25431400E4B20D551400E4B21E
:1002500010256C430419646814256C431B199B7B9F
:10026000012414E02500EDB2022675431600F6B213
:10027000AE191500EDB210277D434519AF68BC4695
:100280001D1B08277D436746EF408F55641C2500E2
:10029000EDB21E00F6B2761CB542E3DB81E7130037
:1002A000DBB2CC5CA04B1500EDB2102675434519AE
:1002B0006D68142675435B5D23431400E4B20B554F
:1002C0006FE71300DBB2CC5CA64B1500EDB2102635
:1002D000754345196D68092675435B191B7A2343DD
:1002E0001400E4B20B55012313E01C00E4B2022514
:1002F0006C431500EDB264191500EDB2102675437C
:100300004519AD680326F61A08277E43F5400D55BA
:100310005B1C1C00E4B2042CE7DB42E71300DBB2F9
:10032000CC5C904B1500EDB21026754345196D68F5
:10033000092675435B191B7A23431400E4B20B555D
:100340002FE71300DBB2CC5C864B1500EDB2102614
:10035000754345196D68092675435B191B7A23435C
:100360001400E4B20B55012313E01C00E4B2022593
:100370006C431500EDB264191500EDB210267543FB
:100380004519AD680326F61A08277E43F5400D553A
:100390005B1C1C00E4B2042CE7DB02E7012313E042
:1003A0001C00E4B202256C431500EDB2641915007F
:1003B000EDB21026754345196D680326F61A082715
:1003C0007E43F5400D555B1C1C00E4B2042CE7DBBA
:1003D000E7E61300DBB2CC5C624B1500EDB21026F1
:1003E000754345196D68092675435B191B7A2343CC
:1003F0001400E4B20B55012313E01C00E4B2022503
:100400006C431500EDB264191500EDB2102675436A
:100410004519AD680326F61A08277E43F5400D55A9
:100420005B1C1C00E4B2042CE7DBBAE61300DBB271
:10043000CC5C644B1500EDB21026754345196D6810
:10044000052675435B191B79DB0023431400E4B2D6
:100450000B551300DBB2CC5C424B1500EDB21026FD
:1004600075434519AD68092675435B191B7A23430B
:100470001400E4B20B55012313E01C00E4B2022582
:100480006C431500EDB264191500EDB210267543EA
:100490004519ED680326F61A08277E43F5400D55E9
:1004A0005B1C1C00E4B2042CE7DB7AE61300DBB231
:1004B000CC5C444B1500EDB21026754345196D68B0
:1004C000052675435B191B79DB0023431400E4B256
:1004D0000B551300DBB2CC5C224B1500EDB210269D
:1004E00075434519AD68092675435B191B7A23438B
:1004F0001400E4B20B5554E653E652E651E650E6DA
:100500004FE64EE64DE6F0BD8C44000880B54A4902
:1005100000F0B6FD05D25C4900F0C5FD00F018FE04
:1005200000E0002002BD0000643E000880B558498C
:1005300000F0A6FD06D2554900F0B5FD00F05AFEC8
:1005400080B200E0002002BD80B5514900F098FD66
:1005500006D24E4900F0A7FD00F04CFE80B200E04C
:10056000002002BD5C48000880B5684900F088FDA5
:1005700006D27C4900F097FD00F03CFE80B200E01E
:10058000002002BD80B5624900F07AFD06D28149A3
:1005900000F089FD00F02EFE80B200E0002002BDD8
:1005A00080B57D4900F06CFD0AD2944900F07BFDD6
:1005B000BF21090600F03BFE00F01CFE80B200E007
:1005C000002002BDE048000880B5804900F058FDD9
:1005D00006D2994900F067FD00F00CFE80B200E001
:1005E000002002BD80B5864900F04AFD06D2A04930
:1005F00000F059FD00F0FEFDC0B200E0002002BD99
:1006000080B57F4900F03CFD06D2994900F04BFDD2
:1006100000F0F0FDC0B200E0002002BD80B57849D6
:1006200000F02EFD06D2924900F03DFD00F0E2FD03
:10063000C0B200E0002002BD1C24744610B5A449DD
:1006400000F01EFD1DD2B94900F02DFD0400200070
:1006500000F0D0FDC0B200F07BFE0100200000F0F1
:100660001EFEFC21890500F00BFD05D2200000F0E4
:10067000C1FD401EC0B205E0200000F0BBFDC0B2CD
:1006800000E0002010BD00002A24743CFED4684124
:1006900072C6684710B5A64900F0F2FC1DD2C849E1
:1006A00000F001FD0400200000F0A4FDC0B200F045
:1006B0004FFE0100200000F0F2FDFC21890500F052
:1006C000DFFC05D2200000F095FD401EC0B205E021
:1006D000200000F08FFDC0B200E0002010BD3EB54C
:1006E0000B009F4C002101910092DBB201222100FE
:1006F000C0B2FFF722FD9B4D29002000FFF73AFD15
:10070000B049280000F0C2FA37BD000003E7734685
:10071000C0147444FEB507000C00914E00200190F7
:10072000002000902300DBB2022231003800C0B26A
:10073000FFF703FD8B4D29003000FFF71BFDA14E95
:100740003100280000F0A2FAD048E4B214214C4352
:100750000019827BD2B231003800C0B200F0CEFA6C
:10076000FEBD00000B2474413EB50B007C4C002103
:1007700001910092DBB203222100C0B2FFF7DDFC41
:10078000784D29002000FFF7F5FC8E49280000F085
:100790007DFA37BD0124743E81E173463EB50B00FE
:1007A0006F4C0021019100210091DBB20422210055
:1007B000C0B2FFF7C2FC6B4D29002000FFF7DAFC46
:1007C0008049280000F062FA37BD000024207444FC
:1007D0003EB50B00624C002101910092DBB2052274
:1007E0002100C0B2FFF7A9FC5E4D29002000FFF7F1
:1007F000C1FC7449280000F049FA37BD000074417B
:10080000DA11833B3EB50B008021C9038B4212D223
:10081000534C002101910021009106222100C0B219
:10082000FFF78BFC4F4D29002000FFF7A3FC654923
:10083000280000F02BFA37BDF423743D3EB50B00C1
:100840008021C9038A4212D2454C002101910092B5
:10085000DBB207222100C0B2FFF76FFC414D290037
:100860002000FFF787FC5749280000F00FFA37BD3A
:100870006E9583373EB53A4C0193D2B20092C9B21D
:100880000B0008222100C0B2FFF757FC354D2900AC
:100890002000FFF76FFC4B49280000F0F7F937BD47
:1008A0003EB50B002E4C00210191D2B20092DBB27A
:1008B00009222100C0B2FFF740FC2A4D2900200088
:1008C000FFF758FC3F49280000F0E0F937BD000071
:1008D0000180BB453EB5224C0021019100210091D1
:1008E00000230A222100C0B2FFF727FC1D4D29007A
:1008F0002000FFF73FFC3349280000F0C7F937BD5F
:100900003EB5174C002101910021009100230B22DC
:100910002100C0B2FFF711FC124D29002000FFF7A3
:1009200029FC2849280000F0B1F937BD0080BB43FD
:1009300001007A453EB50A4C002101910021009149
:1009400000230C222100C0B2FFF7F7FB054D290060
:100950002000FFF70FFC1B49280000F097F937BD76
:1009600038040020700400203EB5AB4C00210191FA
:100970000021009100230D222100C0B2FFF7DDFB12
:10098000AC4D29002000FFF7F5FB0E49280000F0D0
:100990007DF937BD3EB5A04C0021019100210091A9
:1009A00000230E222100C0B2FFF7C7FBA14D290092
:1009B0002000FFF7DFFB0349280000F067F937BD8F
:1009C0000000FA41780400203EB5934C00210191CB
:1009D0000021009100230F222100C0B2FFF7ADFBE0
:1009E000944D29002000FFF7C5FBC349280000F003
:1009F0004DF937BD3EB5884C002101910021009191
:100A0000002310222100C0B2FFF797FB894D290077
:100A10002000FFF7AFFBB849280000F037F937BDD9
:100A20003EB57D4C0021019100210091002311224F
:100A30002100C0B2FFF781FB7E4D29002000FFF7A7
:100A400099FBAD49280000F021F937BD7CB50600BF
:100A5000714C002001900020009000231222210000
:100A60003000C0B2FFF769FB724D29002000FFF78C
:100A700081FBA14C2100280000F008F9022221008E
:100A80003000C0B200F03AF980B276BD643E000892
:100A9000E0B50B00002101910092DBB201225E491A
:100AA000C0B2FFF74AFB07BDE0B50B000021019182
:100AB00000210091DBB202225749C0B2FFF73DFB93
:100AC00007BDE0B50B00002101910092DBB20322CB
:100AD0005149C0B2FFF731FB07BDE0B50B00002163
:100AE000019100210091DBB204224B49C0B2FFF713
:100AF00024FB07BDE0B50B00002101910092DBB2A1
:100B000005224549C0B2FFF718FB07BDE0B50B0051
:100B1000002101910021009106223F49C0B2FFF758
:100B20000CFB07BDE0B50B00002101910092DBB288
:100B300007223949C0B2FFF700FB07BDE0B50193BA
:100B4000D2B20092C9B20B0008223349C0B2FFF7FB
:100B5000F4FA07BDE0B50B0000210191D2B200927A
:100B6000DBB209222C49C0B2FFF7E7FA07BDE0B5B6
:100B7000002101910021009100230A222649C0B2E0
:100B8000FFF7DBFA07BDE0B50021019100210091DC
:100B900000230B22B949C0B2FFF7CFFA07BDE0B579
:100BA000002101910021009100230C22B349C0B221
:100BB000FFF7C3FA07BDE0B50021019100210091C4
:100BC00000230D22AD49C0B2FFF7B7FA07BDE0B56B
:100BD000002101910021009100230E22A749C0B2FB
:100BE000FFF7ABFA07BDE0B50021019100210091AC
:100BF00000230F22A149C0B2FFF79FFA07BDE0B55D
:100C00000021019100210091002310229B49C0B2D4
:100C1000FFF793FA07BD000038040020E0B500217B
:100C2000019100210091002311229449C0B2FFF7E5
:100C300084FA07BD70040020E0B500210191002175
:100C40000091002312228D49C0B2FFF776FA07BD4A
:100C500038B58B4D29008948FFF78CFA264C2100C6
:100C6000280000F013F8200032BD00B50100C9B221
:100C7000002907D00100C9B2002905D00100C9B27E
:100C8000022901DAC0B200E0FF2000BDF1B582B058
:100C90000F0000267B480670350007E000BF017892
:100CA000491C017001781429F8DB6D1C2800C0B2C2
:100CB000042820DA744C00222189606800F058FC76
:100CC0000A20009002232800C0B2022148433A18AB
:100CD000029884462900C9B2022041436046411867
:100CE0006A4800F0E1FC01222189606800F040FCC4
:100CF00067480670D6E7F7BD78040020F0B50023FA
:100D000001240EE02500EDB2022675434D190600C0
:100D1000F6B2AD5D161B08277E43B5401D432B0080
:100D2000641C2500EDB2042DECDB1800F0BD38B5D5
:100D30000C0000251821C0B2FFF7ECFC55490A68E9
:100D40001080E4B2002C15D0022C21D018D3042C32
:100D50002ED025D3062C3AD032D3082C47D03ED300
:100D60000A2C54D04BD30C2C61D058D30E2C6ED0FF
:100D700065D371E0086800780500ED07ED0F6BE0C2
:100D80000868008880B240080500ED07ED0F63E0B9
:100D90000868008880B280080500ED07ED0F5BE071
:100DA0000868008880B2C0080500ED07ED0F53E029
:100DB0000868008880B200090500ED07ED0F4BE0E0
:100DC0000868008880B240098507AD0F44E00868D4
:100DD000008880B2C0090500ED07ED0F3CE008680F
:100DE000008880B2000A0500ED07ED0F34E00868C6
:100DF000008880B2400A0500ED07ED0F2CE008687E
:100E0000008880B2800A0500ED07ED0F24E0086835
:100E1000008880B2C00A0500ED07ED0F1CE00868ED
:100E2000008880B2000B0500ED07ED0F14E00868A4
:100E3000008880B2400B0500ED07ED0F0CE008685C
:100E4000008880B2800B0500ED07ED0F04E0086814
:100E500000880500ADB2ED0B2800C0B232BD00B570
:100E60000100C9B2192906DA0B49C0B21422504355
:100E70000818401C00E009A000BD00003804002054
:100E8000700400208604002064040020D4030020A5
:100E90008704002094000020643E00080000000049
:100EA00070B504000D006869FFF740FBA083A869D6
:100EB000FFF74AFBE083E869FFF756FB2084286AC6
:100EC000FFF760FB6084686AFFF76AFBA0848726EF
:100ED000F605A86A310000F035FE296800F0E3F855
:100EE00000F088F926216054E86A310000F02AFEFB
:100EF000296800F0D8F800F07DF927216054286BAC
:100F0000310000F01FFE296800F0CDF800F072F902
:100F100028216054686B310000F014FE296800F04D
:100F2000C2F800F067F929216054A86BFFF74CFB69
:100F30006085E86BFFF756FB2C216054286CFFF7A7
:100F40005FFB2D216054686CFFF768FB2E21605415
:100F50004820285C2F216054E86CFFF76FFB31219B
:100F60006054286DFFF796FB322160545420285CB2
:100F7000332160545520285C342160545620285A6F
:100F8000E086A28B04212078A3681B689847E28B37
:100F900005212078A3681B689847228C06212078B9
:100FA000A3681B689847628C07212078A3681B6898
:100FB0009847A28C08212078A3681B6898472620B0
:100FC000225C09212078A3681B6898472720225CAF
:100FD0000A212078A3681B6898472820225C0B21EF
:100FE0002078A3681B6898472920225C0C21207870
:100FF000A3681B689847628D0D212078A3681B6841
:1010000098472C20225C0E212078A3681B68984703
:101010002D20225C0F212078A3681B6898472E2082
:10102000225C10212078A3681B6898472F20225C3F
:1010300011212078A3681B6898473120225C132176
:101040002078A3681B6898473220225C14212078FE
:10105000A3681B6898473320225C15212078A36879
:101060001B6898473420225C16212078A3681B68EF
:101070009847E28E17212078A3681B68984770BDB7
:101080000CB4012212060318DA4207D84B18DA42D0
:1010900004D802000A43921802D288420CBC70475E
:1010A000FCD08142FAE730B405004D400122D2075E
:1010B00015404B180418240E28D01B0E2FD0FF2CDF
:1010C00034D0FF2B37D0E41A000209021043114339
:1010D00043084808D10D1B1A02D2641EDB181B18E6
:1010E000DB18834200D31B1A4941F9D37F3426DD34
:1010F000FE2C08DAE4054808C9071943914160410C
:10110000284330BC7047FF20C005F9E728001B0EBC
:1011100003D0FF2BF5D14902F3D0D043F1E7FF2CE8
:1011200001D14002F9D1FF20C005E9E74002F4D126
:10113000FF2BF8D1F1E728004902E2D0EDE70B02DE
:1011400000202442DCD15B129B1CD9D9D805D7E7FB
:1011500000180ED2010E7F390BD449421F3105D43D
:10116000C0010122D2071043C84070470020401E32
:10117000704700207047F1B4016842184168480880
:10118000131800988068C9071ED5494640181BE00F
:101190001778521C0770401C761EF9D1002C13D012
:1011A0001678521C89080D40032D01D11578521C68
:1011B000290271184D424119A41C05D00D78491C13
:1011C0000570401C641EF9D19A420FD01178521C50
:1011D000032503260E4002D11678F61C521C0C097A
:1011E0000F2CD9D114780F34521CD5E700980C304D
:1011F000F2BC70470122D2070118090E7F3910D4C2
:1012000049421F310FD4001805D2C0011043C84015
:1012100000D5D0437047C0011043C84005D44042B8
:101220007047002070470042F3D51000704701223C
:10123000D20703004B402ED4431A01D2C01AC9185A
:1012400030B44B180418240E1B0E22D0FF2C20D0D3
:10125000E31A182B1DDC09021143C40D641E0002A1
:10126000104394461925ED1A0A00AA40D9404518A2
:1012700001D36D08A41CE405D209280A2D062A43CF
:101280006546AA41604103181B0EFF2B01D3C00D18
:10129000C00530BC7047514006E05140CCE7012208
:1012A000D20703004B40F8D4431A03D2C01AC9181E
:1012B0005040514030B44B18090211430418240E19
:1012C0001B0E40D0FF2C3AD025009D410BD31ED8D9
:1012D000C50D4002401A0BD3ED050100400AC905B7
:1012E00091416841D5E7C50D40024918401AD0D058
:1012F00001214008491C0018FCD58C4204D36D1A0A
:10130000000AED054019C4E7E8051040C1E7182DB3
:10131000BFDCAC1C0D00E140E5414D40012D4941D1
:10132000C40D00021043451A01D46D199543641E83
:10133000E405280A2D069541604130BC7047FF2B1B
:10134000A7D1D843A5E72442A3D10020A1E72000DC
:101350009D2102000AD002D4491E9218FCD5C9056D
:10136000100A1206524100D3012A4841704700007A
:10137000F8B5020000230020002032E0052403E03D
:10138000754CA242FAD104241F003E4004277E433C
:10139000B440044371489E0804277E438451704C36
:1013A0002068A8434E68F60300D5284320606D4CA2
:1013B0002068A8434E68B60300D5284320606A4CD5
:1013C0002068A8434E68F60200D528432060674C89
:1013D0002068A8434E68B60201D505432800206066
:1013E0005B1C0868D840002800D1B3E001240868DD
:1013F00025009D400540002DF2D04868022802D00B
:10140000486812281ED1D808042670431018076AAD
:10141000072000970F26B4461F0007400426774395
:101420006646BE40009FB743BC460E691F00384069
:1014300004277843864067463E43D808042778430C
:101440001018066217680326BC461F000220474397
:101450003000B8406746874300974868304084466C
:101460001F00022047436046B840009F3843106089
:101470004868012808D04868022805D04868112823
:1014800002D0486812281DD19768BC461F00022070
:1014900047433000B840674687430097C868844692
:1014A0001F00022047436046B840009F38439060C9
:1014B00057682000984087434868000920409840BA
:1014C00038435060D768BC461F00022047433000B5
:1014D000B840674687430097886884461F0002200B
:1014E00047436046B840009F3843D0604868C0001A
:1014F00000D475E72B480768274307600068204041
:1015000000900098154884469F0804204743604691
:10151000C05900900F27BC461F00300038400427F8
:101520007843674687400098B8439027FF05BA4242
:1015300001D1002428E71C4FBA4200D124E71B4CFC
:10154000A24201D102241FE7194CA24200D017E7A2
:10155000340019E7F1BD0000001000480800014008
:101560000004014004040140080401400C0401404F
:1015700000B5D2B2002A02D089B2816101E089B2FD
:10158000816200BD80B50B490A6803009BB21A4016
:10159000002A05D0020092B20A6080B200F0C3FCBB
:1015A00001BD000018100240000400480008004877
:1015B000000C00481404014038B50400002C01D18F
:1015C00001206BE05D20205C002805D100205C211B
:1015D0006054200000F0C2FC022001005D22A154F2
:1015E0002168096840229143226811602C49E26811
:1015F0008A4201D3002201E080225201E368F025F3
:101600002D01AB4206D0E368E025ED00AB4201D0EE
:101610000023A362236B002B06D1E3688B4201D326
:10162000206301E0012020636068A1680143206914
:10163000084361690143A06980239B001840084367
:10164000E1690143206A0843A16A014320680160FF
:10165000206B022806D1206800688021090101431F
:1016600020680160A069000C04210840616A014300
:10167000606B0843E16801430A4320684260E06A06
:10168000216808612068C069064901402068C1617D
:101690000020206601205D216054002032BD000042
:1016A00001070000FFF70000F7B504001E0000F07E
:1016B000F7FC009000255C20205C012801D102206D
:1016C0006DE1012738005C2160545D20205C012819
:1016D00001D002255CE10198002806D0029900297A
:1016E00003D0320092B2002A01D13D0050E1052220
:1016F0005D23E25400222266216446216652442181
:101700006652A063E687A6878026B601A06AB0422B
:101710000AD1206800680C490140206801602068F7
:1017200000683043216808609D48E168814203D227
:101730004621615A02290BDB21684968034A0A40A5
:1017400021684A600BE000BFFFDF0000FFEFFFFFF2
:1017500021684968802252010A4321684A60402179
:10176000226812680A40002A04D1226812681143D4
:1017700022681160E168814248D3E08F002804D1DB
:101780004620205A002800D1B0E0E08F00281AD06F
:1017900020688068800716D5A06B00882168C86023
:1017A000A06B801CA063E08F401EE087E08F0028C4
:1017B00009D1A06AB04206D12068006880214901A1
:1017C0000143206801604620205A002810D020687C
:1017D0008068384000280BD02068C068216C0880E1
:1017E000206C801C20644620205A401E46216052F6
:1017F00008980021C9438842BFD000F051FC0099ED
:10180000401A08998842B8D30325C1E0E08F002828
:1018100003D14620205A002868D0E08F002827D026
:1018200020688068800723D5E08F02280ADBA06B40
:1018300000882168C860A06B801CA063E08F801EB8
:10184000E08708E0A06B411CA16300782168087361
:10185000E08F401EE087E08F002809D1A06AB042E7
:1018600006D1206800688021490101432068016099
:101870004620205A00282BD0206880683840002855
:1018800026D04620205A022817DB2068C068216C29
:101890000880206C801C20644620205A801E46212F
:1018A00060524620205A022812DA206840688021BF
:1018B00049010143206841600AE0206C411C216419
:1018C0002168097B01704620205A401E4621605243
:1018D00008980021C943884298D000F0E1FB0099A4
:1018E000401A0899884291D3032551E0A06AB0427A
:1018F00036D1089B01220121200000F055F8002874
:1019000005D0206E022101432166032540E0E068F6
:10191000F0210901884206D12068C0686946088024
:10192000684600881CE02068007B6946088068469D
:101930000088206B022813D1089B0122012120007E
:1019400000F032F8002805D0206E02210143216604
:1019500003251DE02068007B6946088068460088F2
:1019600020688068C00607D5206E022101432166E9
:101970000C48216888603D000899200000F0BDF8FF
:10198000002801D020202066206E002800D03D00D5
:101990005D20275400205C2160542800C0B2FEBDA9
:1019A00001070000EFFF0000F2B5040017001D0062
:1019B00000F076FB06002068806800990140B9427B
:1019C0003DD00020C0438542F5D0002D04D000F06A
:1019D00067FB801BA842EED320684068E021884363
:1019E0002168486060688221490088420FD1A06860
:1019F00080210902884204D0A0688021C900884261
:101A000005D1206800684021884321680860802053
:101A10008001A16A81420AD121680968484A0A40C6
:101A200021680A602168096808432168086001206C
:101A30005D21605400205C216054032000E0002000
:101A4000F2BDF3B581B0040017001D0000F028FBC3
:101A500006002068806802990140B9424AD0029885
:101A6000C021C900884207D1002F05D12068007B22
:101A700069460870684600780020C0438542E8D077
:101A8000002D04D000F00CFB801BA842E1D320689D
:101A90004068E021884321684860606882214900ED
:101AA00088420FD1A06880210902884204D0A06832
:101AB0008021C900884205D1206800684021884300
:101AC0002168086080208001A16A81420AD12168D2
:101AD00009681B4A0A4021680A60216809680843AE
:101AE0002168086001205D21605400205C21605461
:101AF000032000E00020FEBD000038B504000D000A
:101B00002B000022C02149012000FFF79AFF002886
:101B100005D0206E20210143216603200EE02B001A
:101B2000002280212000FFF73FFF002805D0206E13
:101B3000202101432166032000E0002032BD000087
:101B4000FFDF000030B405004D400122D2071540F0
:101B50004B180418240E2ED01B0E32D0FF2C34D07C
:101B6000FF2B3AD0E4180002090210431143000A87
:101B7000090A9446C2B24A43000AC3B24B43000A60
:101B80004843110A5B181A43D2B2190A091801D442
:101B90004918641E080A7F3C23DBFE2C08DAE405A2
:101BA00009061143634699416041284330BC7047A0
:101BB000FF20C005F9E728001B0EFF2BF6D1D0430C
:101BC000F4E72800FF2CF1D1F9E74002F7D1FF2B11
:101BD00001D14902F3D1E005E7E7D8054902E4D095
:101BE000EDE743020020641CDFD15B129B1CDCD9B3
:101BF000D805DAE7FEB5BE4CBE49200000F07EFAFB
:101C000000F030FB00F0A4FB0190002510E028005C
:101C1000C0B200F079FDC0B200F004FE06000198E9
:101C20002900C9B2B02251434018716888476D1C21
:101C30002800C0B20028EAD0AF49200000F05EFAC8
:101C400000F010FB042069464870002000F05CFDA5
:101C50006946087004E068460078401C69460870D0
:101C6000002000F051FD6946097888424BD3684650
:101C7000007800F0D7FD06000020FEF7F6FF050013
:101C80001EE0029B01222900C9B268460078B768AD
:101C90003F69B84701222900C9B268460078B36895
:101CA0009B6C98470028F5D0FA20800000F00EFECB
:101CB000641C200069464978C0B28842E1D36D1C9B
:101CC0000120FEF7D2FF2900C9B28842C3D3019890
:101CD00069460978022251432A00D2B28918582253
:101CE000514344185420215C022000F00BF90700F6
:101CF0006068FFF72DFA78436946497800F0F3FDF4
:101D000002900024D5E77D4800F0E0FD002000F0BF
:101D1000FBFC050026E001982900C9B202225143CC
:101D20002200D2B289185822514340180069FEF7A8
:101D3000EDFB020001212000C0B22300DBB204272A
:101D40007B43F318DB689B681B6D9847641C01207C
:101D5000FEF78BFF2100C9B28842DCD2B068C06CAC
:101D600080476D1C002000F0CFFC2900C9B28842DA
:101D700004D30020FEF779FF0400E8E7604800F094
:101D8000A5FD002000F0C0FC040017E02800C0B250
:101D90002900C9B2042251437118C9688968802298
:101DA000895888476D1C0120FEF75FFF2900C9B2E2
:101DB0008842EBD2B068C06C8047641C002000F001
:101DC000A3FC2100C9B2884204D30020FEF74DFFD6
:101DD0000500E8E7082069464870002000F094FC00
:101DE0006946087004E068460078401C694608703F
:101DF000002000F089FC6946097888424BD3684688
:101E0000007800F00FFD06000020FEF72EFF050011
:101E10001EE0029B01222900C9B268460078B7681B
:101E20003F69B84701222900C9B268460078B36803
:101E30009B6C98470028F5D0FA20800000F046FD02
:101E4000641C200069464978C0B28842E1D36D1C09
:101E50000120FEF70AFF2900C9B28842C3D30198C6
:101E600069460978022251432A00D2B289185822C1
:101E7000514344185420215C022000F043F807002D
:101E80006068FFF765F978436946497800F02BFDF3
:101E900002900024D5E7002000F036FC040017E093
:101EA0002800C0B22900C9B2042251437118C96880
:101EB00089688822895888476D1C0120FEF7D5FE65
:101EC0002900C9B28842EBD2B068C06C8047641C5C
:101ED000002000F019FC2100C9B2884204D3002080
:101EE000FEF7C3FE0500E8E7002000F079FDF7BD2E
:101EF000640300207047000890470008C4090000F0
:101F00001027000030B50A000121002303E004007F
:101F1000E4B261435B1C1C001500E4B2EDB2AC42BC
:101F2000F5D3080030BD80B580B2012808D0022862
:101F300009D080218901884207D100F01FFC04E00C
:101F400000F018FC01E000F017FC01BD80B5002294
:101F500000210020C04300F026FE01BD70B586B010
:101F600001684B4A914235D1802189024548026877
:101F70000A43026002681140059105998021C90257
:101F800002680A43026000680140059105988020BC
:101F900040013D490A6802430A600968084005900B
:101FA0000598C02000900226019600240294032583
:101FB0000395049469469020C005FFF7D9F90820DD
:101FC0000090019602940395049469462F48FFF708
:101FD000CFF925E000682F49884221D18021C9022C
:101FE000284802680A43026000680140059105988C
:101FF0008020C00128490A6802430A600968084035
:1020000005900598E0200002009002200190002039
:10201000029003210391049069461C48FFF7A8F938
:1020200006B070BD80B586B000681C49884227D1D3
:102030008020800213490A6802430A60096801404F
:102040000091009914490A6802430A60096808402F
:10205000009000980C200190022002900120039033
:1020600003210491059001A99020C005FFF780F994
:10207000002200211C2000F096FD1C2000F098FD9D
:1020800007B000BD141002401810024000040048C0
:1020900000300140003800401C1002400044004065
:1020A00001480068704700BF8004002010B51B4C39
:1020B00039A1200000F022F86549200000F01EF848
:1020C0006449200000F01AF86349200000F016F877
:1020D0006249200000F012F86149200000F00EF87B
:1020E00071A1200000F00AF87049200000F006F805
:1020F0006F49200000F002F810BD000080B50022FA
:1021000013001A00521CDBB2CB5C002BF8D1521E1C
:102110000A23D2B292B200F0AFFD01BD64030020E9
:1021200010B504002068808C5A21615A012902D020
:10213000C0B20D282FD15A20205A401C5A2160527B
:10214000606D401E60650020616D087012A1200066
:10215000FFF7D4FF2068C0698006FBD420680068C0
:1021600020218843216808606920205C322803D13F
:102170001220692160540EE0206800686C4901401B
:102180002068016020688068012188432168886098
:1021900001206921605410BD0D0A0000F8B505004A
:1021A0000C002800C0B200F0B8FA00284FD06846F2
:1021B0000470604C60A739002000FFF79FFF5F4963
:1021C0002000FFF79BFF00216846007800F072F8BE
:1021D00001002000FFF792FF59492000FFF78EFF12
:1021E0000021EDB2280000F065F801002000FFF7A3
:1021F00085FF54492000FFF781FF00251FE02900DB
:10220000C9B268460078FEF785FA06002800C0B219
:10221000FEF725FE01002000FFF770FF4AA1200015
:10222000FFF76CFF0321300000F044F801002000AC
:10223000FFF764FF39002000FFF760FF6D1C2800E6
:10224000C0B21928DBDB39002000FFF757FFF1BDD2
:1022500048480008A4460008D44600087048000812
:102260008048000838B5002000F04EFA05000EE066
:102270002100C9B22800C0B2FFF790FF641C012002
:10228000FEF7F3FC2100C9B28842F1D26D1C002098
:1022900000F03AFA2900C9B2884204D30020FEF7C0
:1022A000E4FC0400EBE731BD200D0A0030480008D3
:1022B000B0470008F0B500221300C9B2002905D0CC
:1022C000022907D004D3032906D006E0012304E045
:1022D000022302E0042300E00823140005001DE0AF
:1022E00037312600F6B2815517E018482100C9B2EF
:1022F00042540F215E1E361B04277E43B140294005
:102300005E1E361B04277E43F1400E00F6B20A2EF5
:10231000E6DA30312600F6B28155641C200019003F
:10232000C0B2C9B28842E0D30848E4B20255F0BD59
:10233000FFFEFFFF640300200D0A00002C47000889
:1023400090480008F84800083A200000580400208F
:1023500000487047A43B0008F0B585B05048514C88
:10236000216802680A4322600189009111210191CC
:10237000002602960327039769464068FEF7F8FF98
:102380004948216802680A43226001890091474D4B
:102390000195029669464068FEF7EAFF0022002197
:1023A000052000F000FC4248216802680A432260D0
:1023B000018900910195029669464068FEF7D8FFB1
:1023C00000220021052000F0EEFB002000F09CF927
:1023D00005001DE0374821682A00D2B20C235A4379
:1023E00082580A4322602900C9B20C225143411885
:1023F00009890091012101910296039769462A00FB
:10240000D2B20C235A4380184068FEF7B1FF6D1C0E
:10241000002000F079F92900C9B28842DAD205B06B
:10242000F0BD38B51E4C002221896068FFF7A0F886
:10243000012221896068FFF79BF8002000F064F911
:10244000040010E02800C0B2FEF78EFA2800C0B2E7
:10245000FEF7FCFA6D1C0120FEF707FC2900C9B24B
:102460008842EFD2641C002000F04EF92100C9B26E
:1024700088420ED32000C0B200F04FF9C7480122B5
:1024800001894068FFF774F80020FEF7EEFB0500B5
:10249000E1E7002000F038F9C0B200F03EF931BDAC
:1024A00034030020141002404003002000002110DB
:1024B0004C0300205803002080B5C0B2012806D18B
:1024C000052000F075FB052000F072FB05E00520FB
:1024D00000F073FB052000F070FB01BD70B50C002F
:1024E00015001E00C0B200F018F9002806D0320016
:1024F00029002000C9B2C0B2FEF7F1F870BD38B5AE
:102500000D001400C0B200F008F9002806D0280021
:102510002100C9B2C0B2FEF7FDF800E0FF2032BDD5
:1025200070B50C0015001E00C0B200F0F6F80028CF
:1025300006D0320029002000C9B2C0B2FEF714F95B
:1025400070BD38B50D001400C0B200F0E6F80028E8
:1025500005D028002100C9B2C0B2FEF71FF931BD75
:1025600070B50C0015001E00C0B200F0D6F80028AF
:1025700006D0320029002000C9B2C0B2FEF728F907
:1025800070BD38B50D001400C0B200F0C6F80028C8
:1025900004D028002100C0B2FEF734F931BD70B577
:1025A0000C0015001E00C0B200F0B7F8002806D0DD
:1025B000320029002000C9B2C0B2FEF73FF970BD59
:1025C00070B50C0015001E00C0B200F0A6F800287F
:1025D00008D0049B320029002000D2B2C9B2C0B298
:1025E000FEF748F970BD70B50C0015001E00C0B2B2
:1025F00000F093F8002807D0320029002000D2B262
:10260000C9B2C0B2FEF74CF970BD10B50C00C0B233
:1026100000F083F8002803D02000C0B2FEF75AF97A
:1026200010BD10B50C00C0B200F077F8002803D040
:102630002000C0B2FEF764F910BD10B50C00C0B2A6
:1026400000F06BF8002803D02000C0B2FEF772F94A
:1026500010BD10B50C00C0B200F05FF8002803D028
:102660002000C0B2FEF780F910BD10B50C00C0B25A
:1026700000F053F8002803D02000C0B2FEF78AF91A
:1026800010BD10B50C00C0B200F047F8002803D010
:102690002000C0B2FEF798F910BD10B50C00C0B212
:1026A00000F03BF8002803D02000C0B2FEF7A2F9EA
:1026B00010BD10B50C00C0B200F02FF8002803D0F8
:1026C0002000C0B2FEF7ACF910BD10B50C00C0B2CE
:1026D00000F023F8002804D02000C0B2FEF7B6F9BD
:1026E00000E0002010BD38B50D001400C0B200F0AD
:1026F00014F8002806D028002100C9B2C0B2FEF7A5
:1027000016FB00E0FF2032BD00B50100C9B2002970
:1027100001D1C0B200E0FF2000BD10B50100C9B278
:10272000002916D11D49534A0300DBB20C24634330
:10273000D3580B600300DBB20C246343D3185B68EF
:102740004B60C0B20C235843101800890881012047
:1027500000E0002010BD80B50020FFF7D5FFC0B21B
:10276000FFF7DBFFFFF7F8FDFFF75BFE0120FFF748
:10277000A3FE01BD00BF704700BF704780B53E4853
:10278000002201894068FEF7F3FEFEE780B50100F4
:102790003A4800F08BF801BD0000000064040020FE
:1027A00080B50100364800F081F801BD80B5010018
:1027B000344800F07BF801BD80B50100324800F0DC
:1027C00075F801BD80B501003048FEF769FB01BD19
:1027D00080B501002E48FEF763FB01BD80B5010006
:1027E0002C48FEF75DFB01BD80B501002A48FEF7CD
:1027F00057FB01BD80B501002848FEF751FB01BD24
:1028000080B501002648FEF74BFB01BD80B50100F5
:102810002448FEF745FB01BD80B501002248FEF7C4
:102820003FFB01BD38B5040025000020FFF76CFF19
:10283000EDB2854201D111481AE025000120FFF7D1
:1028400063FFEDB2854201D10D4811E02500022061
:10285000FFF75AFFEDB2854201D10A4808E0032094
:10286000FFF752FFE4B2844201D1074800E00020A4
:1028700032BD00005803002034030020D4020020A1
:10288000EC020020040300201C030020F4000020C0
:10289000300100206C010020A8010020E40100208C
:1028A000200200205C0200209802002038B50500BC
:1028B0000C002878696988472000E96849688847DA
:1028C0002000583029694968884731BD11B581B069
:1028D0000020FFF7E5FB0400FFF7E2FB001B019976
:1028E0008842F9D313BD0022030A8B420BD203099D
:1028F0008B4219D243088B422ED2411A00D2014694
:10290000524110467047FF2209023FD012068B4207
:1029100005D3121209028B4201D3121209020309D4
:102920008B4219D300E0090AC3098B4201D3CB01C2
:10293000C01A524183098B4201D38B01C01A524104
:1029400043098B4201D34B01C01A524103098B4208
:1029500001D30B01C01A5241C3088B4201D3CB00F3
:10296000C01A524183088B4201D38B00C01A5241D6
:1029700043088B4201D34B00C01A5241884200D316
:10298000401A5241CFD201461046704708B500F0B8
:10299000A1FC08BD80B586B00100C9B2002909D1EB
:1029A00080218902434A13680B4313601268114067
:1029B0000091009940490200D2B202235A43895A39
:1029C00001910121029103910321049101A93B4A44
:1029D000C0B2042358431058FEF7CAFC07B000BD2C
:1029E00010B5012234490300DBB202246343C95A03
:1029F000324BC0B2042460431858FEF7B9FD10BD35
:102A000010B500222C490300DBB202246343C95AEB
:102A10002A4BC0B2042460431858FEF7A9FD10BD2C
:102A200038B586B005002800C0B2002809D1802042
:102A30000003204A1368034313601268104000909B
:102A400000980C001E482900C9B202225143405A86
:102A5000019000200390032104912100C9B20029B4
:102A600009D1029001A917482A00D2B204235A437F
:102A70008058FEF77DFCE4B2012C18D11248029078
:102A800001A910482A00D2B204235A438058FEF705
:102A90006FFC0E4C002203212800C0B2205C40B223
:102AA00000F081F8EDB2605D40B200F081F807B04F
:102AB00030BD0000141002404E13000898000020A2
:102AC000F22B00089C000020000021103A49000869
:102AD0000121C006C00E81403C48016070470121C1
:102AE000C006C00E81403A4801607047F0B5020050
:102AF00052B2002A23D503220F24364B05006DB2B3
:102B00002540083DAD0804267543060076B23440E2
:102B1000083CA408042674431E59FF27BC46140031
:102B2000044008277C436746A740BE438901C9B2D9
:102B30000240082042439140314359511AE0264A4D
:102B40000323040064B2A40804256C431459FF2530
:102B50001E00064008277E43B540AC438901C9B238
:102B6000034008256B439940214340B28008042369
:102B700058431150F0BD80B5411E8022520491424D
:102B800001D301200EE0401E1449086003210020FB
:102B9000C043FFF7ABFF002011490860072011492F
:102BA0000860002002BD80B540B2FFF79FFF01BD65
:102BB00080B540B2FFF78CFF01BD80B540B2FFF792
:102BC0008EFF01BD80B5FFF7D6FF02BD00E100E03A
:102BD00080E100E01CED00E000E400E014E000E033
:102BE00018E000E010E000E080B500F001F801BD61
:102BF0007047002010B50400002C01D1012037E0FF
:102C0000A0690028FFD16920205C002805D10020A0
:102C1000682160542000FFF705FA02206921605402
:102C2000206800680121884321680860200000F0C6
:102C300094F8012801D101201AE0606A002802D02E
:102C4000200000F05CF9206840680A4901402068D3
:102C50004160206880682A21884321688860206854
:102C600000680121014320680160200000F0C2F9E2
:102C700010BD0000FFB7FFFFF8B504006920205C1D
:102C8000012803D06920205C222864D10D00002D8A
:102C900003D0100080B2002801D101205CE0682040
:102CA000205C012801D1022056E00127380068216C
:102CB00060540026E6666920205C222803D1322079
:102CC0006921605402E01220692160545020225290
:102CD00052202252009306E028000088C005C00D53
:102CE00021680885AD1C5220205A00281BD0522094
:102CF000205A401E52216052009B00228021200059
:102D000000F0B4F9002801D0032025E0A06880215C
:102D10004901884202D120690028DDD02878216845
:102D200008856D1CDFE7009B00224021200000F099
:102D30009DF9002801D003200EE06920205C322894
:102D400003D122206921605401E0692027546820C2
:102D50002654002000E00220F2BDF8B50400002156
:102D6000080010221000080008000D00A368266962
:102D70001E4367693743E3693B4326683668984FCB
:102D800037403B432668336023685B68954E1E409E
:102D9000E368334326687360A669236A3343266871
:102DA000B668914F37403B432668B36023688F4E27
:102DB000B34214D18E4B1B689B079B0F002B05D091
:102DC000022B08D005D3032B01D006E031E002210D
:102DD0002FE004212DE008212BE0110029E02368D9
:102DE0009E4EB3421CD1824B1B68C026B6021E40C9
:102DF000002E0CD080235B029E420BD080239B02CE
:102E00009E4209D0C0239B029E4201D006E010E002
:102E100002210EE004210CE008210AE0110008E084
:102E200023688F4EB34204D023688E4EB34200D045
:102E3000110080221202E369934230D1C9B2002905
:102E400006D002290CD004290FD0082915D01AE089
:102E500000F05BFE022148436168FFF744FD13E088
:102E600081486168FFF73FFD0EE000F0F5FD0221AB
:102E700048436168FFF737FD06E080204002616843
:102E8000FFF731FD00E00125B049014080B2400864
:102E90004007400F084380B22168C8602CE0C9B2E7
:102EA000002906D002290DD0042913D008291AD0F0
:102EB00021E000F02AFE6168FFF715FD80B221686D
:102EC000C86019E0A2486168FFF70DFD80B2216873
:102ED000C86011E000F0C0FD6168FFF704FD80B23A
:102EE0002168C86008E010006168FFF7FCFC80B250
:102EF0002168C86000E001252800C0B2F2BD00B51D
:102F00002421415CC90707D501684968914A0A40F4
:102F1000816A1143026851602421415C890707D509
:102F2000016849688C4A0A40C16A114302685160CD
:102F30002421415C490707D501684968874A0A404E
:102F4000016B1143026851602421415C090707D5D8
:102F500001684968824A0A40416B11430268516026
:102F60002421415CC90607D5016889687D4A0A4069
:102F7000816B1143026891602421415C890607D569
:102F800001688968784A0A40C16B11430268916000
:102F90002421415C490614D501684968734A0A40F6
:102FA000016C114302685160016C8022520391420E
:102FB00007D1016849686E4A0A40416C11430268B2
:102FC00051602421415C090607D501684968694AB6
:102FD0000A40816C11430068416000BD00000000A0
:102FE000F369FFEFFFCFFFFFFFF4FFFF0038014061
:102FF0003010024038B504000025E56620685E49BF
:10300000884203D02068154988421FD12068006893
:1030100000070BD5FA239B000022802189032000A2
:1030200000F024F8002801D0032015E02068006893
:1030300040070BD5FA239B0000228021C903200002
:1030400000F014F8002801D0032005E001206921D8
:10305000605468202554002032BD00000044004028
:1030600000480040004C00400024F400F2B5040089
:1030700017001D00FFF714F80600FFB2002F31D132
:103080002068C06900990140009881425CD000200E
:10309000C0438542F4D0002D04D0FFF701F8801B17
:1030A0008542EDD22068006880218843216808604D
:1030B0002068006820218843216808602068006833
:1030C00083490140206801602068806801218843AD
:1030D00021688860012069216054002068216054C3
:1030E000032032E02068C0690099014000988142C5
:1030F0002AD10020C0438542F4D0002D04D0FEF731
:10310000CFFF801B8542EDD2206800688021884374
:1031100021680860206800682021884321680860D1
:10312000206800686A490140206801602068806862
:1031300001218843216888600120692160540020B2
:1031400068216054032000E00020F2BDF0FF000081
:1031500000127A00FFFFFDFFFFFFFEFFFFFFFBFFF6
:10316000FF7FFFFFFFEFFFFFFFDFFFFFFFFFEFFF2F
:10317000FFFF9FFFFFFFF7FF0038014000B5692107
:10318000415C122903D06921415C322930D152219E
:10319000415A00290DD101680968802291430268D3
:1031A00011600168096840220A430068026000203B
:1031B0001FE081688022520191420CD101690029EF
:1031C00009D1C16C0988C905C90D02681185C16C96
:1031D000891CC16405E0C16C4A1CC264097802689C
:1031E00011855221415A491E52228152002000E08D
:1031F000022000BD80B50168096840229143026841
:1032000011606921415C322903D122216922815454
:1032100008E00168896801229143026891600121F8
:103220006922815400F090FC002002BD80B55C2131
:10323000415A6922825C222A03D06922825C322AA6
:1032400043D1826880235B019A420BD10269002A34
:1032500008D1426D03689B8C19401180416D891C17
:10326000416506E0426D531C436503689B8C194021
:1032700011705A21415A491E5A2281525A21415AEB
:10328000002920D101680968202291430268116059
:103290006921415C322903D11221692281540EE057
:1032A000016809680A4A0A4001680A600168896879
:1032B000012291430268916001216922815400F04A
:1032C00044FC002002E0002000E0022002BD0000DB
:1032D000FFFEFFFF7047FEE7F8B5040000202078EE
:1032E000C00778D50C208D490A680240042A0BD00B
:1032F0000A681040082810D10868C021490201401E
:1033000080204002814208D1B4480068800362D521
:10331000606800285FD1012051E2B14FAF4D2868AD
:1033200038402860AF4E286830402860FEF7B8FE6D
:1033300000902868800308D5FEF7B2FE0099401A75
:10334000A9498842F5D3032039E26068012805D1F4
:10335000286880214902014329601DE06068002837
:1033600006D1286807402F60286806402E6013E0C9
:10337000606805280AD128688021C90201432960B4
:103380002868802149020143296005E02868074038
:103390002F60286806402E60606800280DD0FEF778
:1033A0007FFE06002868800315D4FEF779FE801B97
:1033B0008D498842F6D3032001E2FEF771FE060034
:1033C0002868800307D5FEF76BFE801B864988427C
:1033D000F6D30320F3E12078800721D50C204F4954
:1033E0000A680240002A0BD00A68104008282FD132
:1033F0000868C0214902014080200002814227D193
:1034000076480168890704D5E168012901D00120C7
:10341000D5E10168F82291432269D2000A43026093
:103420002078000755D5206A002840D0B64D28687E
:10343000012101432960FEF733FE0600286880075A
:1034400047D4FEF72DFE801B6528F7D30320B6E195
:10345000E068002819D0614D2868012101432960E6
:10346000FEF71EFE06002868800706D4FEF718FE49
:10347000801B6528F7D30320A1E12868F821884341
:103480002169C90001432960CAE7544D2868012118
:1034900088432860FEF704FE060028688007BFD531
:1034A000FEF7FEFD801B6528F7D3032087E1964DCC
:1034B0002868012188432860FEF7F2FD060028688D
:1034C000800706D5FEF7ECFD801B6528F7D30320A7
:1034D00075E1042520682840002800D186E080207E
:1034E0004005B7490A6802430A600968084000902D
:1034F000009880277F00B34E306838433060FEF775
:10350000CFFD009030683840002809D1FEF7C8FD93
:103510000099401A6528F5D3032050E104100240B9
:10352000A94E30680121884330600427FF4330688A
:1035300038403060FEF7B4FD00903068800708D551
:10354000FEF7AEFD0099401A27498842F5D30320C3
:1035500035E1A068012804D13068012101433160C0
:103560001CE0A068002807D1306801218843306042
:1035700030680740376011E0A068052807D130683F
:1035800028433060306801210143316006E0306833
:10359000012188433060306807403760A068002808
:1035A0000DD0FEF77DFD0700306880071ED4FEF7C2
:1035B00077FDC01B0C498842F6D30320FFE0FEF7DD
:1035C0006FFD07003068800710D5FEF769FDC01B4E
:1035D00005498842F6D30320F1E000BF0010024005
:1035E000FFFFFEFFFFFFFBFF891300002078C006EE
:1035F0001ED56069012837D1744E306805433560A7
:103600003068012101433160FEF74AFD0500306852
:10361000800706D4FEF744FD401B6528F7D303203E
:10362000CDE03068F8218843A169C90001433160C9
:10363000207880066AD50C2065490A6802400C2A69
:1036400009D00A681040082834D1C0204002096817
:10365000014081422ED15D480068C00356D5E06923
:10366000012853D00120AAE00420C04361698142AF
:103670000BD156490A68104008600868F822904348
:10368000A269D20002430A60D2E7504E3068054377
:1036900035603068012188433060FEF701FD050088
:1036A00030688007C4D5FEF7FBFC401B6528F7D3C4
:1036B000032084E0E069002813D0444D8026760280
:1036C000286830432860FEF7EBFC0700286830408C
:1036D00000281BD1FEF7E4FCC01B6528F6D30320AD
:1036E0006DE03A4D28683B4901402960FEF7D8FC5F
:1036F00006002868C00309D5FEF7D2FC801B6528A8
:10370000F7D303205BE000BF24100240606A00286A
:1037100054D02F4F38680C21014008294CD0606AE2
:10372000022837D12C4D28682C4901402960FEF72A
:10373000B7FC00908026B60428683040002807D0E7
:10374000FEF7AEFC0099401A6528F3D3032036E05B
:10375000234801680F229143226B0A4302603868B4
:1037600020490140E06A0843A16A014339602868A2
:103770008021490401432960FEF792FC0400286877
:10378000304000281AD1FEF78BFC001B6528F6D3C9
:10379000032014E0104C2068104901402160FEF71E
:1037A0007FFC05002068800108D5FEF779FC401BEE
:1037B0006528F7D3032002E0012000E00020F2BDDD
:1037C0001C100240007000402010024034100240E3
:1037D00004100240FFFFFEFF00100240FFFFFFFE4B
:1037E0002C100240FF7FC2FFF3B581B0040000201F
:1037F0000125954F386828400299884200D38AE015
:1038000038680121884302990143396038682840AB
:103810000299884201D0012015E10220216801406F
:10382000002906D089490A68F0239A43A368134304
:103830000B6021680D40002D00D1F6E06168012980
:1038400005D18348006880031AD40120FBE0616839
:10385000022905D17E480068800111D40120F2E0E0
:103860006168032905D17B480068C00308D40120A2
:10387000E9E0774909680840002801D10120E2E029
:10388000724D286803218843616801432960FEF76F
:1038900007FC0600606801280DD128680C21014052
:1038A000042900D1C1E0FEF7FBFB801B8E49884252
:1038B000F3D30320C7E0606802280DD128680C21EB
:1038C0000140082900D1B0E0FEF7EAFB801B8649E1
:1038D0008842F3D30320B6E0606803280DD128683E
:1038E0000C2101400C2900D19FE0FEF7D9FB801B81
:1038F0007D498842F3D30320A5E028680C210140CC
:10390000002900D191E0FEF7CBFB801B764988426D
:10391000F3D3032097E0022021680140002906D05C
:103920004A490A68F0239A43A36813430B6021684D
:10393000294000296CD06168012905D144480068FC
:1039400080031AD401207EE06168022905D1404835
:103950000068800111D4012075E06168032905D158
:103960003C480068C00308D401206CE0384909686D
:103970000840002801D1012065E0344E3068032161
:103980008843616801433160FEF78AFB00906068FC
:1039900001280DD130680C210140042938D0FEF7F0
:1039A0007FFB0099401A50498842F3D303204AE034
:1039B000606802280DD130680C210140082927D009
:1039C000FEF76EFB0099401A47498842F3D3032063
:1039D00039E0606803280DD130680C2101400C29C2
:1039E00016D0FEF75DFB0099401A3F498842F3D399
:1039F000032028E030680C210140002908D0FEF7A0
:103A00004FFB0099401A38498842F3D303201AE04B
:103A100038680121884302990143396038680540BC
:103A20000298854201D001200DE02078400706D59C
:103A3000064801683B4A0A40E168114301600020E2
:103A400000F084F80020FEBD002002400410024077
:103A5000001002403410024038B588B004A8324942
:103A6000102200F085F868463049102200F080F8F6
:103A7000002108000800080008002D4800680C21FB
:103A80000140042904D0082904D00C2926D027E0BD
:103A9000284826E00F2104AA830C0B40D45C6A4618
:103AA000254B1B681940515CC02252021300034091
:103AB00080256D02AB4204D11E48FEF714FF60431F
:103AC0000BE01040904204D11C48FEF70CFF60430D
:103AD00003E01848FEF707FF604302E0174800E0E4
:103AE000144809B030BD00008913000080B5FFF70D
:103AF000B3FF1349134A0E4B1B681B091B071B0F0F
:103B0000D25CD0400860086802BD80B5FFF7EEFFC8
:103B10000C49074A1268120A5207520F895CC840C2
:103B200002BD0000FFF8FFFFA0480008B0480008F1
:103B30000410024000127A002C100240006CDC02DB
:103B4000A0000020C04800087047704710B504006E
:103B5000FFF7CCFFFA218900FEF7C5FEFFF732F828
:103B6000002221000020C043FFF71DF8002010BDF7
:103B700070B4103A03D378C9103A78C0FBD2530717
:103B800001D318C918C001D508C908C0D20704D389
:103B90000B880380891C801C002A01D50B780370D8
:103BA00070BC7047000010410000C8439A99D93F8B
:103BB0000AD74340000070430000C8430000C843D8
:103BC0000000A04300000000CDAC16440AD74340DB
:103BD0000AD743400AD743400AD743407B14764272
:103BE000689ACD393598283A3598283A000000006F
:103BF0000060524500403F4507FF882E00001041FD
:103C00000000C8439A99D93F0AD743400000704347
:103C10000000C8430000C8430000A04300000000AB
:103C2000CDAC16440AD743400AD743400AD7434095
:103C30000AD743407B147642689ACD393598283AA2
:103C40003598283A000000000060524500403F458A
:103C500007FF882E000010410000C8439A99D93F01
:103C60000AD74340000070430000C8430000C84327
:103C70000000A04300000000CDAC16440AD743402A
:103C80000AD743400AD743400AD743407B147642C1
:103C9000689ACD393598283A3598283A00000000BE
:103CA0000060524500403F4507FF882E000010414C
:103CB0000000C8439A99D93F0AD743400000704397
:103CC0000000C8430000C8430000A04300000000FB
:103CD000CDAC16440AD743400AD743400AD74340E5
:103CE0000AD743407B147642689ACD393598283AF2
:103CF0003598283A000000000060524500403F45DA
:103D000007FF882E000010410000C8439A99D93F50
:103D10000AD74340000070430000C8430000C84376
:103D20000000A04300000000CDAC16440AD7434079
:103D30000AD743400AD743400AD743407B14764210
:103D4000689ACD393598283A3598283A000000000D
:103D50000060524500403F4507FF882E000010419B
:103D60000000C8439A99D93F0AD7434000007043E6
:103D70000000C8430000C8430000A043000000004A
:103D8000CDAC16440AD743400AD743400AD7434034
:103D90000AD743407B147642689ACD393598283A41
:103DA0003598283A000000000060524500403F4529
:103DB00007FF882E000010410000C8439A99D93FA0
:103DC0000AD74340000070430000C8430000C843C6
:103DD0000000A04300000000CDAC16440AD74340C9
:103DE0000AD743400AD743400AD743407B14764260
:103DF000689ACD393598283A3598283A000000005D
:103E00000060524500403F4507FF882E00001041EA
:103E10000000C8439A99D93F0AD743400000704335
:103E20000000C8430000C8430000A0430000000099
:103E3000CDAC16440AD743400AD743400AD7434083
:103E40000AD743407B147642689ACD393598283A90
:103E50003598283A000000000060524500403F4578
:103E600007FF882E014142535F504F53000000006E
:103E7000001603000000000002454C5F504F530045
:103E8000000000000009020000000000034D415244
:103E90004B000000000000000016030000000000BE
:103EA0000453504545440000000000000014030086
:103EB0000000000005414343000000000000000036
:103EC000000C02008A000000064445430000000088
:103ED00000000000000C02008A000000074D41585D
:103EE0005F53504545440000000A020041000000B5
:103EF000084D494E5F53504545440000000D0200F7
:103F0000000000001546535F5350440000000000BD
:103F1000000A020027000000094B56414C5F484F41
:103F20004C44000000080100290000000A4B5641E3
:103F30004C5F52554E0000000008010029000000AF
:103F40000B4B56414C5F4143430000000008010009
:103F5000290000000C4B56414C5F444543000000D3
:103F600000080100290000000D494E545F535045E0
:103F700045440000000E0200080400000E53545F88
:103F8000534C500000000000000801001900000020
:103F90000F464E5F534C505F414343000008010001
:103FA0002900000010464E5F534C505F44454300CB
:103FB0000008010029000000114B5F544845524D94
:103FC0000000000000040100000000001241444312
:103FD0005F4F555400000000000501000000000084
:103FE000134F43445F5448000000000000040100E8
:103FF00008000000145354414C4C5F54480000002A
:10400000000701004000000016535445505F4D4F1B
:1040100044450000000801000700000017414C4122
:10402000524D5F454E00000000080100FF000000F7
:1040300018434F4E464947000000000000100200A0
:10404000882E0000195354415455530000000000BD
:10405000001002000000000078B599B002240C9412
:1040600001250F95102010901594802000021690C5
:10407000A0208003179018950CA8FFF72DF9019543
:104080000294002603960496012101A8FFF7ACFBD9
:104090000594089605A800F0B7F84548016829433B
:1040A000016000680540009500981AB070BD80B5A9
:1040B00001210020FEF7B4FC0020FEF76BFC01BDDF
:1040C00080B500F001F801BD38B53A4C3A4820609F
:1040D0008220400060600025A560E020C000E06014
:1040E000022020610120606180208000A0612562A3
:1040F0006562A5626563FFF708FD3049FEF7F3FBD3
:10410000010089B2022904DAE5612000FDF754FAC2
:1041100031BD010089B2042901DA0825F4E7010064
:1041200089B2082901DA1025EEE7010089B21029C9
:1041300001DA1825E8E7010089B2202901DA2025F3
:10414000E2E7010089B2402901DA2825DCE7010015
:1041500089B2802901DA3025D6E780B2FF2801DC58
:104160003825D1E7FEE780B5154816490160E12101
:104170004902416000218160C16001610C224261FD
:104180008161C16101624162FEF734FD01BD80B50C
:1041900000F0D4F8FFF760FFFFF789FFFFF790FF0B
:1041A000FFF7E1FF0849032000F010F801BD00000F
:1041B00018100240D403002000300140404B4C0056
:1041C0006403002000440040EE02000070B50400CB
:1041D0000D00ADB26D0800260EE00020FEF700FCD9
:1041E000280080B2FEF772FB0020FEF709FC2800D1
:1041F00080B2FEF76BFB761C30002100C0B2C9B262
:104200008842EAD370BDFEE7F8B50400002108003B
:1042100080277F022068384000284AD0C0208000D4
:104220003E4D2968014062681040814241D08020A3
:1042300040053B490A6802430A600968084000904B
:104240000098384E30688021490001433160FDF705
:1042500027FF00903068C00507D4FDF721FF0099C3
:10426000401A6528F6D3032056E02F4E28683040C8
:1042700029680F432F6029682C4A0A402A60286069
:104280000227384000280FD0FDF70AFF0090286869
:104290003840002808D1FDF703FF0099401A24494F
:1042A0008842F4D3032037E0286806406068304332
:1042B00028602078C00706D51F4801680322914373
:1042C000A2680A4302602078800706D51A48016870
:1042D000184A0A40E168114301602078800606D53B
:1042E000154801681022914322690A430260206840
:1042F000800306D51048016880229143A2690A43D1
:1043000002602068400506D50B48016840229143B1
:1043100062690A4302600020F2BD000020100240E2
:104320001C10024000700040FFFCFFFFFFFFFEFF7B
:1043300089130000FFFFFCFF3010024080B50648E3
:10434000016810220A4302600020FFF7FFFBFDF71F
:10435000FDFD002002BD00000020024070B50400F9
:1043600001252068C069284000280BD0206800681B
:10437000C00507D520680562E06E2843E066280086
:104380006921605402202168C969014000290DD0CB
:10439000216889682940002908D021680862E16EF7
:1043A00004220A43E26629006922A15404212268FA
:1043B000D2690A40002A0CD0226892682A40002A5A
:1043C00007D022681162E16E0843E0662800692187
:1043D000605408262068C069304000280CD020684E
:1043E00080682840002807D020680662E06E3043CD
:1043F000E066280069216054E06E002802D02000A9
:1044000000F043F8802040032168C9690140002979
:104410000AD021688968490206D5216808626920A6
:104420002554200000F030F820202168C96901409F
:1044300000290CD0216809680840002807D0200016
:10444000FEF7F4FE206880690643206886618020BC
:104450002168C9690140002907D02168096808401E
:10446000002802D02000FEF789FE40202168C9699B
:104470000140002907D0216809680840002802D0BF
:104480002000FEF7B7FE70BD704770474E4F5000DA
:10449000000000000000000000005345545041524D
:1044A000414D000000000002474554504152414D2B
:1044B00000000000200152554E00000000000000E6
:1044C0000000500253544550434C4F434B000000F2
:1044D00058014D4F5645000000000000000040020A
:1044E000474F544F00000000000000006001474F9C
:1044F000544F5F444952000000006802474F554E38
:1045000054494C0000000000820352454C45415381
:104510004553570000009202474F484F4D45000059
:10452000000000007000474F4D41524B000000005A
:10453000000078005245534554504F53000000008E
:10454000D800524553455444455649434500C000A0
:10455000534F465453544F5000000000B0004841A0
:10456000524453544F5000000000B800534F46547B
:1045700048495A0000000000A00048415244484900
:104580005A0000000000A8004745545354415455B8
:1045900053000000D00000001448016801220A43C3
:1045A000026013490A68134B13400B600268124BF8
:1045B000134003600268114B134003600868104AFF
:1045C00002400A600F4801680F22914301600E48C3
:1045D00001680E4A0A4002600D48016801229143B9
:1045E000016000200B490860704700000010024085
:1045F000041002400CB8FF08FFFFF6FEFFFFFBFFB0
:10460000FFFFC0FF2C100240301002402CFEFCFFC8
:10461000341002400810024080B500F01DF8FEF78B
:10462000E3FA01BD80B50120FCF7ACFF0220FCF7E6
:10463000A9FF01BD80B580208001FCF7A3FF01BD6B
:1046400010B5044C2000FFF789FE2000FDF768FD3F
:1046500010BD00006403002002480168491C01608D
:10466000704700BF8004002070B40123002413E0D1
:104670000168001D194202D04D466D1E49190C609B
:10468000091D121F042AFAD20D00960701D50C80CD
:10469000AD1C1A4000D02C700268001D002AE7D122
:1046A00070BC7047202D2D2D2D2D2D2D2D2D2D2D18
:1046B0002D2D2D2D2D2D2D2D2D2D2D2D2D2D2D2D2A
:1046C0002D2D2D2D2D2D2D2D2D2D2D2D2D2D2D2D1A
:1046D0000D0A0000204475616C204C3634373020C0
:1046E000457870616E73696F6E20426F61726420ED
:1046F000666F722053544D3332204E55434C454F14
:104700000D0A000010B5074979441831064C7C4465
:10471000163404E0081D0A68891888470100A14280
:10472000F8D110BD2C0000004800000056616C75E7
:104730006573206F6620746865207265676973749D
:10474000657273206F66204C363437305F2300006B
:1047500019FFFFFF24010000640300200000000097
:1047600017CAFFFFD70100009802000000000020D8
:10477000496E697469616C2076616C756573206639
:104780006F72207265676973746572733A0D0A00FF
:10479000437573746F6D2076616C75657320666FF9
:1047A00072207265676973746572733A0D0A00004E
:1047B0002053544D6963726F656C656374726F6EDC
:1047C0006963732C20323031350D0A0D0A00000068
:1047D00000F00DF8002801D0FFF794FF00BF00BFE4
:1047E000002000BF00BF00F004F800F00CF801202A
:1047F000704780B5FFF7CBFCFDF7ADFFFDF756FC2A
:10480000FDF7F8F9FEE780B500F002F801BDFEE71C
:104810000746384600F002F8FBE7FEE780B500BF28
:1048200000BF024A11001820ABBEFBE726000200C1
:1048300020582D435542452D53504E322076312E6F
:10484000312E310D0A00000020582D4E55434C45A5
:104850004F2D49484D303241310D0A005245560026
:104860000000000000465744000000000001000066
:1048700020537461636B6564206F6E20000000003C
:104880004E55434C454F2D463037325242000000C2
:10489000206F66204578704272645F23000000003C
:1048A00002030405060708090A0B0C0D0E0F101071
:1048B0000102030405060708090A0B0C0D0E0F1070
:1048C00000000000010203040102030406070809B6
:1048D000014880470148004799450008ED48000815
:1048E00052535400004350590001000000BF00BF64
:1048F00000BF00BFFFF76CFF0D0A0D0A00000000AB
:10490000FEE7FEE7FEE7FEE7FEE7FEE7FEE7FEE77F
:10491000FEE7FEE7FEE7FEE7FEE7FEE7FEE7FEE76F
:10492000FEE7FEE7FEE7FEE7FEE7FEE7FEE7FEE75F
:10493000FEE7FEE7FEE7FEE7FEE7071007DF0600FB
:1049400008150700086904129D0412D1041003051C
:104950000800083D0412750412A10412D5041003C6
:1049600001090008350412690412950412C90412E1
:10497000F5041003210A00084D0412910412A90441
:1049800012C30412DB0412F50410030D0B000825FA
:1049900004123D04125504126F04128704129F047E
:1049A00012B70412CF0412E70412FF0410031D0C07
:1049B00000083904100C2F0D0008840400200000AA
:1049C00000480008041003127A00DD2424110410AA
:1049D00003212500084304126104128304129F047A
:1049E00012C10412E70410030B2600082304123B33
:1049F00004125304126B04128304129B0412B304B6
:104A000012CB0412E70412516412000133C52708C7
:104A1000F31E200001120131F226D13C2101F22ABD
:104A2000DD78F22AE978F22AF578F329012878F37B
:104A3000290D2878F22A1978128DF012A43C12F46C
:104A4000041003300100201B10215452A118126CD5
:104A50001452A81812021852AD1812E4144320027E
:104A60001812031852B918125C1452981820010039
:104A7000000403424899110F19A892010C215033E8
:074A800000000613481006B8
:04000005080048EDBA
:00000001FF
